:1000000000400020A5250000A1250000A12500003A
:10001000A1250000A1250000A1250000000000008E
:10002000000000000000000000000000A12500000A
:10003000A125000000000000A1250000A12500006E
:10004000A1250000011B0000091B0000111B00007E
:10005000191B0000A91700007D0C00004D0C0000CA
:10006000A1250000551B00005D1B0000F5140000D9
:1000700001150000A125000049220000210F000009
:10008000390F0000A1250000A1250000390900005A
:10009000A5090000B1090000BD090000C909000060
:1000A000D5090000E1090000ED090000F909000090
:1000B000050A0000110A00001D0A0000290A0000BC
:1000C000350A0000410A00004D0A0000590A0000EC
:1000D000A1250000A1250000A1250000C50A0000FF
:1000E0000D1500001D0C00002D0F0000ED0B000091
:1000F000A1250000A1250000A125000000000000AE
:1001000000000000000000000000000000000000EF
:1001100000000000000000000000000000000000DF
:10012000650A0000710A00007D0A0000890A0000CB
:10013000950A0000A10A0000AD0A0000B90A0000FB
:10018000FFFFFFFFFFFFFFFFFFFFFFFFFFFFFFFF7F
:1001900003329CA77F000000FFFFFFFFFFFFFFFF70
:1001A00010B5054C237833B9044B13B10448AFF3B1
:1001B00000800123237010BD000C0420000000000B
:1001C000A4EB0000084B10B51BB108490848AFF379
:1001D00000800848036803B910BD074B002BFBD013
:1001E000BDE81040184700BF00000000040C0420C8
:1001F000A4EB0000F409042000000000154B002BC4
:1002000008BF134B9D46A3F5803A00218B460F464D
:100210001348144A121A03F0EFFB0F4B002B00D0C7
:1002200098470E4B002B00D0984700200021040077
:100230000D000D48002802D00C4806F0D5F903F057
:10024000B3FB2000290002F063FD03F089FB00BF2F
:100250000000080000400020000000000000000036
:10026000000C04201C190420E9650000F17700004F
:1002700000B585B004AB002043F8100D0C2201A995
:1002800001F0F2F990B90021009801F047FA48B95D
:10029000009801F02BFA10B1064803F02FFC05B0CE
:1002A0005DF804FB044803F029FCF1E7034803F080
:1002B00025FCE8E7A09C0000889C0000749C0000DE
:1002C000027D0388002A6AD02DE9F04F0C6985B0C1
:1002D000002C61D0324C1B0104F500799944E318DD
:1002E000029309F10C03D0F80C8003934FF0010C3A
:1002F00038E04FF00004013A027544750C69029E23
:10030000B4F5806F3DD8651E2D014FF0000E4F688B
:10031000C3F381620197CF680CFA02F2052A3C44CC
:10032000019F28BF002204F1FF3A0AFB02729F0FCF
:100330000CFA07F7052F03F0070B28BF0027BBF1C6
:10034000030F326096BF8A68039A0AFB07222B4389
:100350007260B360C1F810E0CC60027DE2B1BEF122
:10036000000F19D08B69447D48EA0303002CC0D1EB
:10037000013A02750C694E46B4F5806F80F815C0DD
:10038000C1D923F00703A4F5806E43F6F07543F05E
:1003900003034FF48064BAE705B0BDE8F08F7047FF
:1003A0000010042010B528B321B30B68002B28D10E
:1003B000EFF3108303B972B6154C22680AB9154AD7
:1003C000136023680268013323600AB910E01A46FB
:1003D0001368002BFBD1116023680D4A013B236099
:1003E000236823B90B4913600B6803B962B610BDCB
:1003F0000160F1E7084B094A40F2AA61084803F09E
:1004000091FA084B054A40F2AB61054803F08AFABD
:100410001814042014140420049D0000F49C00000F
:100420002C9D0000B49D000010B5F8B1EFF31082D0
:1004300002B972B6114B1968A9B119680268013185
:1004400019601AB1146800210460116019680B4822
:10045000013919601B6823B9094903600B6803B9A6
:1004600062B6104610BD06490A60E6E7054B064A2B
:1004700040F29461054803F055FA00BF18140420B7
:1004800014140420CC9D0000E89C00002C9D00006A
:10049000344B2DE9F047B0F800800127D3F88C30B9
:1004A00007FA08F818EA030FC2684ED0C369002B98
:1004B0004BD0037D002B48D002F0070904462A4E9A
:1004C00000F11C0A11E0237D022B44D1294620466D
:1004D000FFF7F6FE294604F12000FFF763FFE3690A
:1004E000C6F828808BB3237D8BB3B9F1030F1FD0DF
:1004F000236A73BB5046FFF797FF0546F0B109F139
:10050000FF33012B6775A775C6F83480DBD8EA691D
:100510002388D10707FA03F3C6F81438C6F81C3845
:1005200048BFC6F81038920748BFC6F81838CAE75F
:100530005046FFF779FF05460028C7D10B4B0C4A00
:1005400040F203510B4803F0EDF9BDE8F087BDE838
:10055000F087BDE8F087084B054A40F21351054883
:1005600003F0E0F90000042000000140DC9D0000E1
:10057000D49C00002C9D0000EC9D0000002851D070
:10058000016A70B5044600294DD0037D056801332A
:1005900003754B69B3F5806F1CD9A3F580634B617C
:1005A00000E019460B68002BFBD10B69002B35D1FD
:1005B0002046FFF76DFF236A002B2ED01D4A2188AD
:1005C000D2F8842001238B4013421B4A14BF53618D
:1005D000536270BD00234B612030FFF725FF154AA1
:1005E000ADB2D2F88410012303FA05F50D42064698
:1005F000826804D183699B0F032B08BF426863683C
:1006000013B10021A0689847314604F11800FFF7A4
:10061000C9FE216A0029C5D1CAE770BD2046FFF78F
:100620004FFEC8E77047054B054A40F26351054845
:1006300003F078F900000420000001400C9E000047
:100640002C9E00002C9D00002DE9F04F80462C4E82
:100650002C4D706883B040F00100706028781FFA5C
:1006600088F74FF001090C469246009309FA07FB00
:1006700060B364220021204603F0BEF921462246E1
:10068000D5F8840041F8448B1D4E42F8241F1BEA24
:10069000000FA261C6F804B818BF0222C6F83CB029
:1006A00008BF0122E260D5F8882005EB870742EAFF
:1006B0000B03009A002062600C9A7C60A260C5F86F
:1006C0008830CAF8004003B0BDE8F08F0E4B0146F9
:1006D0004FF480621846019303F08EF94FF6FF72D3
:1006E000019B0A494FF40020B3603262F2627263E8
:1006F000F263B264F264326585F800900860B8E78E
:1007000000000140000004200010042000E100E08F
:100710002DE9F041054650F8184B0E46FFF784FED0
:10072000002843D0727C337C96F808C013F0100F79
:100730004FEA82714FEA836314BF4FF0010E4FF00E
:10074000040E12F0100F03F0406241EA0C6343EA1A
:100750000203726814BF022708274EEA07013768B0
:1007600082602A69D6F80C800A4347600026194F38
:100770008361C0F81080C0F81480C161C660014672
:100780002A6105F11C00FFF70DFE4FF00108A4B22D
:10079000D7F88C0008FA04F3034004D02C6A44B163
:1007A0003046BDE8F0811846BDE8F0810520BDE87F
:1007B000F0812846FFF76CFE2A88D7F8840008FAF3
:1007C00002F2054B10401ABF20465A615A62BDE83A
:1007D000F08100BF000004200000014003682DE903
:1007E000F04101229DB2044602FA05F539B13B4EB3
:1007F000D6F88C100D4233D00020BDE8F081384B84
:10080000C269DD621D626AB100F11C0700F11806C1
:100810003846FFF709FE01463046FFF7C3FDE3699E
:10082000002BF5D1236A6BB104F1180704F12006FF
:100830003046FFF7F9FD01463846FFF7B3FD236A5E
:10084000002BF5D125492369D1F88C2023F00F0323
:1008500022EA0505C1F88C5023610020BDE8F08133
:100860001F4F29437868C6F88C1040EA020179606E
:10087000E168022001F0070103296275A275207565
:100880000DD12269C7F81458D107C7F81C5848BFC2
:10089000C7F81058920744BF114AC2F818581B0CE9
:1008A000DFF83C800F495AB2012703F01F0307FA13
:1008B00003F35209C8F83450204641F82230FFF7BC
:1008C000E7FD2288D6F8843097401F4214BFC8F84D
:1008D0001470C8F824700020BDE8F08100000420E6
:1008E0000000014000E100E070B5114C03880125D3
:1008F000D4F88C109D400D4211D1D4F8882004EB1F
:100900008303002022EA05055860C4F8885021B905
:10091000084A536823F001035360002070BD064667
:100920000021FFF75BFF3388D4F88C10E5E700BFA8
:1009300000000420000001402DE9F843174BD3F8D4
:100940004C809E6C1F6D56EA070920D0144DD5F8D7
:10095000883019EA03091AD00435002429FA04F36F
:1009600013F0010F26FA04F14FF0000204F1010424
:1009700009D02868436833B111F0010F806814BFB3
:10098000012102219847202C05F10405E6D1034BF3
:100990009E641F65C3F84C80BDE8F88300000140E9
:1009A00000000420014B5868FFF7E8BD0000042058
:1009B000014B9868FFF7E2BD00000420014BD868A6
:1009C000FFF7DCBD00000420014B1869FFF7D6BD1E
:1009D00000000420014B5869FFF7D0BD000004203F
:1009E000014B9869FFF7CABD00000420014BD8698C
:1009F000FFF7C4BD00000420014B186AFFF7BEBD1D
:100A000000000420014B586AFFF7B8BD0000042025
:100A1000014B986AFFF7B2BD00000420014BD86A71
:100A2000FFF7ACBD00000420014B186BFFF7A6BD1B
:100A300000000420014B586BFFF7A0BD000004200C
:100A4000014B986BFFF79ABD00000420014BD86B57
:100A5000FFF794BD00000420014B186CFFF78EBD1A
:100A600000000420014B586CFFF788BD00000420F3
:100A7000014B986CFFF782BD00000420014BD86C3D
:100A8000FFF77CBD00000420014B186DFFF776BD19
:100A900000000420014B586DFFF770BD00000420DA
:100AA000014B986DFFF76ABD00000420014BD86D23
:100AB000FFF764BD00000420014B186EFFF75EBD18
:100AC00000000420014B586EFFF758BD00000420C1
:100AD0004CF61430174B70B51946D8601A69164C8D
:100AE00042F0020200251A612560D8601A6942F0BE
:100AF00002021A610B690F4A9B05FBD54CF61434B0
:100B00000E480F4B0168402621F003010160D460BC
:100B100011694FF4006021F0080180254FF4007442
:100B200011611E601D605C60586001F0B1FC002026
:100B300070BD00BF00C104400414042000C3044081
:100B400000E100E038B504460D4601F0A1FC8CB18F
:100B5000012C0DD10A4B5B6803F03F03094A002BBF
:100B6000126808BF0123B2FBF3F300202B6038BDED
:100B7000032038BD024B5B68C3F30523EEE700BFDB
:100B800000C304400C14042038B528B3012821D137
:100B90006FF03F02EFF3108000B972B6104B1C6883
:100BA0000CB9104C206018680F4C01301860606858
:100BB0000B4D0240114361601A68013A1A601B68CC
:100BC00023B9084A2B60136803B962B601F060FCD0
:100BD000002038BD032038BD09026FF47C52D9E7EC
:100BE000181404201414042000C30440084A094BBC
:100BF00010B51B68946904F0060423B1064900226D
:100C0000086821049847024A93691C43946110BD07
:100C100000C304400414042008140420084A094BAB
:100C200010B51B68946904F4CC4423B10649002232
:100C3000086821049847024A93691C43946110BDD7
:100C400000C30440041404200814042008B5084B11
:100C50005968CB070BD5074B1B681BB1064A1068B8
:100C600000229847024A536843F00103536008BDCD
:100C700000C00440041404200814042038B50E4DAC
:100C80000E4A2B6854684BB162070ED4A30705D5F2
:100C90000B4A2B681068022100229847074A04F08B
:100CA000060453681C43546038BD05490022086897
:100CB00004219847EAE700BF0414042000C0044060
:100CC000081404203D4B0029F0B506BF1946022543
:100CD0000025032870D8DFE800F0660268026FF094
:100CE0000403EFF3108606B972B6354C27680FB9C6
:100CF000344F3E6044F6590E2768334E0137276063
:100D0000C6F80CE0B768DFF8C8E027F003073843FF
:100D1000B060DEF8100005432B40CEF81030EFF342
:100D200011872A48530106891FFA86FE83F311882A
:100D30000B7803BB0246224D2248138B03F00E03AF
:100D4000002BFAD1BFF34F8F30BF2368013B2360E4
:100D500023681BB92B60036803B962B6EFF31083F5
:100D600003B972B6266806B90360236801332360AD
:100D70000B78002BE1D000230B7087F31188134B05
:100D8000134AA3F808E0136923F002031361BFF3C9
:100D90004F8F23680A4A013B236023681BB9094926
:100DA0001360086830B10020F0BD45F004054FF035
:100DB000FF3396E762B6F0BD0520F0BD00140420B5
:100DC000181404201414042000C00440002C004017
:100DD00000ED00E018B10123037000207047EFF32D
:100DE000108202B972B60F4B196809B90E490A6030
:100DF0001A680E4901321A600A690A4822F0020292
:100E00000A61BFF34F8F1A68013A1A601B6823B951
:100E1000054A0360136803B962B6054801230370ED
:100E200000207047181404201414042000ED00E082
:100E30000014042000207047F0B50446406883B0D9
:100E4000038C9BB2ADF806300588BDF80670BDF87E
:100E5000063007F00F07C7F1080292B2ADB2C3F334
:100E6000032392B1E26982B1C7F10707BFB2013A29
:100E70002169D71B01E042B1013A0E78BA420681DE
:100E8000267EE26131442161F5D1002B43D0226AF4
:100E9000AAB1626901E091B160688188013B11707B
:100EA0006069216A627E013902449BB262612162FB
:100EB000002BF0D119B163681D8003B0F0BDE36968
:100EC000002BF8D12378022B17D0032B0AD0E36B29
:100ED000002BF0D000221146206C984763681D80DB
:100EE00003B0F0BD62680121138A84F8281023F44E
:100EF00040531B041B0C1382E9E7AB07E7D561687D
:100F000001228B8A03F400539BB28B8284F8442025
:100F100084F84520DBE7216A0029CCD1CFE700BF68
:100F2000014B9869FFF788BF94000420014B586B70
:100F3000FFF782BF94000420014B186DFFF77CBFC0
:100F40009400042070B4066A002380F8443083B013
:100F500080F84530002E32D032464468C36923B948
:100F6000218A89B241F4005121829A4238BF1A463F
:100F700092B22283A3F108054BB10169013B0A78C3
:100F80009D422281027EC3610A440261F4D18EB97E
:100F90000378032B0ED083680D4993F9103001229A
:100FA00003F01F0082405B09002041F8232003B0BA
:100FB00070BC7047A3889BB2ADF80630EBE744687D
:100FC000C269218A134689B241F482512182C6E75F
:100FD00000E100E0FEE700BF10B50446836B044962
:100FE00098476268938A9BB243F40053938210BD82
:100FF00005001900F0B5026A83B0044672B31146C9
:101000004068E36953B9058A25F040052D042D0C8D
:101010000582058AADB245F400550582994238BF74
:1010200019462569676901330132012689B25B08D7
:101030005208018384F845606365A266A56484F85C
:1010400044602766E5B104F14801D4F8D400FFF705
:101050005FFB074658B10D2003B0F0BDC169406881
:101060000B46058AADB245F480550582CAE7314684
:10107000D4F8D400FFF7B2FB84F844706769022506
:1010800097B104F15C01D4F83C01FFF741FB06463F
:101090000028E0D10121D4F83C0145F00405FFF718
:1010A0009DFBADB284F845606268938B9BB243F0C0
:1010B00001031D43ADB29583138A5B0603D4938865
:1010C0009BB2ADF80630A368064993F910300122AF
:1010D00003F01F0082405B09002041F8232003B089
:1010E000F0BD00BF00E100E0184B10B4994222D0DF
:1010F0000CD9174B99421ED003F1011399420CD021
:10110000A3F10213994208D010BC7047B1F5A01F9B
:1011100011D0A3F103139942F6D142680024938BB6
:10112000012123F004031B041B0C9383046280F849
:10113000281010BC704742680021938B10BC23F02C
:1011400002031B041B0C9383C16170470400180049
:1011500006001A0010B50446836B05499847236AB8
:101160002BB96268938A9BB243F40053938210BDFB
:1011700004001800426810B5938B044623F007035F
:101180001B041B0CD0F8D4009383FFF7ADFB08B110
:10119000052010BDD4F83C01FFF7A6FB0028F7D1CD
:1011A00010BD00BF30B50446836883B000F1D4029F
:1011B00004F1700158680094134BFFF745FA10B121
:1011C000052003B030BDA268104B906804F1D8012F
:1011D00004F59E720094FFF737FA0028F0D1626898
:1011E000012302F1080503210432E564E26584F875
:1011F000583084F8503084F86D3084F8643084F8C6
:10120000591084F86C10DCE755110000D90F00006C
:101210000020704738B58368012193F910300A4DDA
:101220005A0903F01F0301FA03F3203245F8223074
:10123000036B0446984708B1052038BDA3682070A9
:101240009861187038BD00BF00E100E04268138A61
:1012500031B923F400631B041B0C13820020704778
:101260009BB243F4006313820020704730B50C46F4
:1012700083B001A905460020FFF764FC0199B1EB9A
:10128000440F02D8092003B030BDB1FBF4F1490886
:10129000013989B201F03F038B42F3D16A68002023
:1012A0009381F0E7F8B50C46064600251D602946F7
:1012B00020461F4602F0A0FB264AC6EBC60602EBFC
:1012C0008600254AC3682549DFF8A4E0244EA060C3
:1012D0008461E2620222A16363606573257384F80E
:1012E0002850E5632564C4F830E0666320469D8499
:1012F0001C492270FFF7BAFF002828D1EFF31083B2
:1013000003B972B618490A680AB9184A13600B681B
:10131000626801330B60138A02259BB243F4405389
:10132000138215820B68104D013B0B600B682BB9C3
:101330000E492B600B680BB962B662680023938379
:10134000138A9BB243F0010313823C60F8BD257001
:10135000F8BD00BF9400042011120000D50F00005A
:10136000450F000090D0030018140420141404202A
:10137000350E00000378022B01D00C207047436823
:101380008AB2817300201A86704700BFF8B5036BDC
:1013900004460D46984708B10520F8BD257365B988
:1013A0000E4A0F480F49104BE26220636163A3634A
:1013B000204690470028EFD1F8BD61680B488B8A22
:1013C0000B4F23F007031B040A4E0B4D1B0CE0626E
:1013D00027636663A56302468B82E9E7111200006A
:1013E000350E0000450F0000D50F0000A5110000CC
:1013F00075110000F50F0000E9100000F0B504467B
:101400008368294D93F9103001205A0903F01F0316
:1014100098402032636845F822001A8A207B22F423
:1014200041521204120C1A8283B09A8A002834D0D6
:1014300022F400521204120C9A820A69C8680F68DA
:101440004E688D6822764A69276162761A88206222
:1014500092B2ADF80620BDF80620666192B2E56151
:101460001A801A8A616B92B242F002021A822046F6
:10147000884780B9637B73B194F8443093B194F892
:101480004530DBB23BB994F84430002BFBD094F8E4
:101490004530DBB2F6E703B0F0BD92B242F4005241
:1014A0009A82CAE70346EDE700E100E010B5044682
:1014B00001234373FFF7A2FF0023637310BD00BF36
:1014C00070B590E848009D8B5EB1ADB2EA07044666
:1014D0000AD4AB0704D5636800220221A0689847AC
:1014E000236803229A8170BD002201218068B047E1
:1014F000EFE700BF014BD868FFF7E2BFE800042028
:10150000014BD869FFF7DCBFE8000420014BD86A23
:10151000FFF7D6BFE8000420F0B50026154C0E609A
:101520000201A55822440D60CA604E608E601960A9
:1015300000EB80031048CC685B0030F803E0034404
:1015400094F904505F880C6830469E88A4F800E047
:101550002781B3F806E0A6821F8905F01F06012344
:10156000B340064E6D09A4F820E0A78446F8253064
:10157000D160F0BDE8000420409E000000E100E0E2
:10158000F0B40668C468338994F9042023F010038A
:1015900051090120074F1B0402F01F02002500FA29
:1015A00002F21B0C20313381284647F82120E560E8
:1015B000F0BC704700E100E00346002059609A60EB
:1015C000704700BF0268002013899BB223F0030319
:1015D00019431181704700BF10B4EFF3108303B9B2
:1015E00072B6104A14680CB90F4C23601368006877
:1015F00001331360038923F010031B041B0C09B192
:1016000043F01003038113680649013B136013681C
:1016100023B9054A0B60136803B962B6002010BCF9
:10162000704700BF1814042014140420026800201E
:1016300013899BB223F0080319431181704700BF3F
:101640000268002013899BB223F00403194311811F
:10165000704700BF0268002013899BB223F060032B
:1016600019431181704700BFF8B50C461E46054668
:101670000021204602F0C0F900201949306051F8DD
:1016800035304FF0010E1F8BEA00FF0620706060BE
:10169000A06084F802E001EB020002D41F89BF06BB
:1016A00015D505230F4F63704FF0200E0123C7F8A7
:1016B00000E0237030600A4451F835305460188BD4
:1016C00010F00E00FBD14CF6CC429A81F8BDDFF849
:1016D00018E042273EF825E0A3F800E01F81E0E78C
:1016E0001801042000E100E0609E000030B40446D0
:1016F0004568012295F901300748590903F01F0395
:1017000002FA03F32031002240F821306A701046BB
:10171000626030BC704700BF00E100E0026810B4B6
:10172000138BDB0603D511B1082010BC704743684A
:101730009B7833B9138B03F00E033BB10A2010BC26
:101740007047138B03F00E03002BFAD1EFF31080D8
:1017500000B972B6124B1C680CB9124C20601868A4
:1017600001301860A1B1118989B241F06001118185
:101770001A680B49013A1A601B6833B9094A0B60B1
:10178000106810B962B610BC7047002010BC7047DA
:10179000118921F020010904090C1181E8E700BF3B
:1017A00018140420141404200E4B59681A688B78FE
:1017B00063B9138B03F00E0313B94CF6CC4393813A
:1017C0004B6873B10022886811461847138B03F0E9
:1017D0000E03002BF1D0138B03F00E03002BF5D179
:1017E000EBE77047180104202DE9F0411B4FA1F1F0
:1017F0000903DBB2FD68012B82B00E4605EBC00584
:101800000DD94E1E0123164A6C6803FA06F61661BE
:1018100014B1A8680022A04702B0BDE8F0810024FE
:1018200002E00134032CF7D057F82420092E0CBF16
:10183000138D938DD5F8048099B2138E0B40ADF8BB
:1018400006301386B8F1000FEBD0002BE9D00DF174
:1018500006022146A868C047E3E700BF2001042034
:1018600080C004400D49CA680AB100207047034691
:10187000C86000F130015A6043F8082F8B42FAD15A
:101880000368074A10B401334FF400744FF48061C9
:10189000036014600020116010BC70472001042018
:1018A00000E100E0421E032A70B42ED96FF00F034E
:1018B000002241F0080101FA02F2EFF3108101B9B0
:1018C00072B6144D2C680CB9134C21602968134C66
:1018D0000131296021680F4E0B4042EA030121606B
:1018E0002B68013B2B602B6823B90B4A33601368CC
:1018F00003B962B670BC00F01F010123084A400919
:101900008B4042F820300020704792000F23934014
:10191000DB43CEE7181404201414042080C00440D4
:1019200000E100E010B4430900F01F040122174950
:1019300001382033A240032841F8232022D8800018
:10194000082303FA00F0C043EFF3108202B972B625
:101950000F4B196809B90F490A601A680E4901321C
:101960001A600A680A4C104008601A68013A1A6046
:101970001B6823B9074A2360136803B962B60020C5
:1019800010BC70476FF00800DEE700BF00E100E028
:10199000181404201414042080C00440144B30B4E4
:1019A00053F82040EFF3108000B972B6114B1D6858
:1019B0000DB9114D28601868013018608AB1A288ED
:1019C00092B21143A1801A680A49013A1A601B6851
:1019D00023B9094A0B60136803B962B630BC002012
:1019E0007047A28892B222EA0101A180EBE700BF12
:1019F000200104201814042014140420144B30B4C3
:101A000053F82040EFF3108000B972B6114B1D68F7
:101A10000DB9114D28601868013018608AB1A2898B
:101A200092B21143A1811A680A49013A1A601B68EF
:101A300023B9094A0B60136803B962B630BC0020B1
:101A40007047A28992B222EA0101A181EBE700BFAF
:101A5000200104201814042014140420024B53F80D
:101A6000203000201983704720010420024B53F8D6
:101A7000203000209983704720010420034B53F845
:101A8000203000201B8A194011807047200104205B
:101A900030B4EFF3108404B972B6164B1D680DB95B
:101AA000154D2C601C68451E01341C60092D1ED884
:101AB000DFE805F01B1B1B1B1D1D1D1D0505053843
:101AC00080B21C680D4D013C1C60EC681B6804EB87
:101AD000C00082604160074A23B9074913600B6860
:101AE00003B962B630BC00207047A8B2E9E7002015
:101AF000E7E700BF18140420141404202001042078
:101B000001210020FFF770BE02210120FFF76CBE0B
:101B100003210220FFF768BE38B50C4A0C4BD2688F
:101B20005B68D56903F02003002B0BBF0024202441
:101B30000421242115B1106A0022A847044A136920
:101B400043F008031C43146138BD00BF200104208A
:101B500080C0044009210420FFF746BE0A21052069
:101B6000FFF742BEF8B50D4611466F6CEFF31082D9
:101B700052BB72B6D5F844E0214C26680EB9214E0E
:101B800032602668DEF8002001369342266022D0BB
:101B90002668DFF86CE0013E2660226822B9194C05
:101BA000CEF8002022688AB1846824B11A46C06841
:101BB000A04700233B602B6D2BB995F84C20022ADF
:101BC00006D085F84C30F8BDBE46D5E762B6EBE7E7
:101BD00085F85820F8BD2A6D00268EF80C60DEF8D6
:101BE00010C08668013A2A65C5F844C0002ECFD1DE
:101BF00095F884200132D2B285F88420C8E700BF6E
:101C00001814042014140420036CF0B41C6814B1DC
:101C10000620F0BC7047EFF31085FDB11E46124C54
:101C200027680FB9114F3D60256801273D442560A5
:101C30001F7325681960691E2160016D356924686C
:101C4000002639445A609E60074B0564016544B91B
:101C5000064A1C60106820B962B6DAE772B6066CF4
:101C6000DDE70020D5E700BF181404201414042079
:101C70002DE9F0418C6C9DF818502668964211D0E1
:101C8000012D03D0BDE8F0410021184744694FF011
:101C9000FF31A28A5206F5D40139FAD198470120C2
:101CA000BDE8F081EFF310860EB972B68C6C0E4A67
:101CB00017680FB90D4F3E60166800270136166091
:101CC00016682760013E1660126881F84C704C64FB
:101CD0000C640549002AD3D1044C0A602268002A0A
:101CE000CED162B6CCE700BF18140420141404202F
:101CF00030B4051D45648564056400F1180300F1E6
:101D00005404002243F8142C43F8102C43F80C2CF4
:101D100043F8043CA3F114011433A3420A73F1D134
:101D2000C56330BC704700BFF8B5446A236D0BB97A
:101D3000002955D1EFF310830BB972B6446A354DC3
:101D40002A680AB9344A13602B68064601332B60AF
:101D500094F8643000292DD1002B39D02F4B4269E3
:101D60004FF00051C3F88010938823F020031B0428
:101D70001B0C9380706A90F8653033B190F8843012
:101D80000133DBB280F88430706A0024046580F887
:101D90004C40FFF7ADFF736A83F858402B681D4A2B
:101DA000013B2B602B688BB91B491360086868B92D
:101DB00062B6F8BDCBB9426993889BB243F0010388
:101DC0009380736A012283F85820E7E70020F8BD6A
:101DD0004269938823F001031B041B0C9380C9E71D
:101DE0000222184684F85820F8BD276E01230C4AB9
:101DF00004F170012046B8470028DAD1074B726918
:101E00004FF00051196093889BB243F020039380F8
:101E1000D7E700BF181404201414042000E100E0E8
:101E200009001D00F8B5056A2A6D0AB9002948D1D4
:101E3000EFF310830BB972B6056A354C22680AB904
:101E4000344A1360236806460133236095F86430F2
:101E5000B9B1002B3AD1426993889BB243F0020397
:101E60009380336A012283F858202368284A013B73
:101E7000236023681BBB274913600868F8B962B662
:101E8000F8BD002B32D14269938823F002031B0472
:101E90001B0C9380306A90F8653033B190F8843031
:101EA0000133DBB280F88430306A0025056580F8A4
:101EB0004C50FFF71DFF336A83F85850D5E70020D8
:101EC000F8BD0223104685F85830F8BD2F6E012367
:101ED000114A05F170012846B8470028D0D172692F
:101EE00093889BB243F010039380BAE70B462F6EA2
:101EF000094A05F170012846B8470028C0D1726927
:101F0000938823F010031B041B0C9380C2E700BFCF
:101F1000181404201414042008001C002DE9F84FA4
:101F2000144607460E46DDF828A000251A46294625
:101F30002046CAF800504FEA8709DFF87C8101F09B
:101F40005BFD09EB070308EB8303D96806F0FD028C
:101F5000012A63606161267004F1300B41D0023EBA
:101F6000012E68D9626949F6C661032393816269CB
:101F70001620108562694FF4165091846269012120
:101F8000938562692061A16193856269002313844E
:101F90006169444A8B87616904204FF480438880DB
:101FA000CAF800401360EFF3108202B972B63E4BDC
:101FB000196809B93D490A601A684F4401321A602C
:101FC0001A6808EB8707013A1A601B683C61364AB9
:101FD00023B9364913600B6803B962B60020BDE827
:101FE000F88F334AC4F820B05846C4F88C2084F8DF
:101FF0007C5084F88850C4F8805084F89450C4F819
:102000009050D3F804B0FFF773FE2A4B84F8A85021
:102010009B4504F1B801626935D0032384F8B150BF
:10202000C4F8A02084F8B030236A023E012E04F5E3
:102030008E7B996696D862681D4B00259668C4F819
:1020400024B05846CBF85C308BF84C508BF8585085
:10205000CBF850508BF86450CBF86050FFF748FE37
:10206000144B8BF878509E420BF1880162694FF057
:10207000030310D0CBF870208BF881508BF88030A0
:10208000636A99666FE7032384F8B050C4F8A4200C
:1020900084F8B130C8E7CBF874208BF880508BF807
:1020A0008130EDE700E100E018140420141404204E
:1020B000091C000008001C00300104200146002318
:1020C00010B444691846A28A83B092B2ADF80620D3
:1020D000A3804A68137003B010BC70472DE9F0412B
:1020E000046A82B094F84C30022B20D001250646B9
:1020F0002167E26784F84C50D4F85C8004F17003E7
:1021000020460F46C04718B1284602B0BDE8F0810E
:1021100029463046346AFFF785FE0028F5D1626C07
:10212000137B002BFCD1F3694BB10D20EDE794F844
:102130005830022BDAD0102002B0BDE8F081012324
:1021400000933A4621463046014BFFF791FDDCE70C
:10215000251E00002DE9F041446A82B094F84C300D
:10216000022B20D0012506466167E26784F84C50B7
:10217000D4F85C8004F1700320460F46C04718B1C4
:10218000284602B0BDE8F08129463046746AFFF760
:10219000CBFD0028F5D1626C137B002BFCD1F369D9
:1021A0004BB10D20EDE794F85830022BDAD0102017
:1021B00002B0BDE8F081022300933A462146304642
:1021C000014BFFF755FDDCE7291D00000346002009
:1021D0009960DA60704700BF10B444690A43A0896F
:1021E000134320F00F000004000C1843A08110BC22
:1021F000002070472DE9F0416FEA43446FEA5444F0
:102200001F460E4643694FEAC2281985436944EACE
:10221000080482B0A4B29C849DF82010436908EBA6
:10222000070489B20546998506FB04F601A900203A
:10223000FEF788FC019C0020A401B4FBF6F42C619D
:1022400002B0BDE8F08100BF8F4B30B51C6985B08E
:102250006269138903F00E030C2B21D8DFE803F029
:102260006720452022200720202020202200938A5A
:102270009BB2D90600F185805A0703F0080140F1AE
:102280008A809D0741F0040101D541F00201A56A51
:10229000002D00F0A8800022E06AA8470023E36137
:1022A00005B030BD636A586C138801680029F7D007
:1022B0008268DBB28B54616A4A6C93685068013360
:1022C00083429360ECD3136820462022FFF74AFC38
:1022D000636A93F85830022BE2D16269938823F045
:1022E00001031B041B0C9380DAE7236A596C0B680B
:1022F000002BD5D089685B5C1380216A4A6C936897
:102300005068013383429360CAD313682046402249
:10231000FFF728FC236A93F85830022BC0D162697A
:10232000938823F002031B041B0C9380B8E7B2F8D8
:102330004430B2F840109BB213F00F0589B216D0AA
:10234000C90714D513F001032CD11A4601210092BC
:1023500020460122FFF74EFF6268A3680321117037
:102360001BB169020022E068984762691388B2F8DD
:10237000403023F007031B041B0CA2F8403005B0CB
:1023800030BD616A1288486C00255A074FF0100171
:1023900085603FF576AF98073FF577AF00293FF4AA
:1023A0007FAF74E703A90020FEF7CCFB6369A06947
:1023B000039AB3F8481002FB00F2B3F8443089B234
:1023C000C3F30B1303EB0133B2FBF3F2B3EBC00F18
:1023D000226128D25B02B3FBF0F30121A3F5006375
:1023E00000229BB2B3E7A36823B12A46E06898476E
:1023F000E56155E710293FF453AF636AE1611A6D57
:102400002AB193F884200132D2B283F88420236A5F
:102410001A6D002A3FF444AF93F884200132D2B2FF
:1024200083F884203CE7B3EB001F07D21A02B2FB0B
:10243000F0F30121A3F500630A46D2E7420193427B
:1024400007D2DA01B2FBF0F30121A3F50063022207
:10245000C7E7B3FBF2F2C2F3460292B10021520881
:1024600001F10101FBD1012202FA01F101FB00F0AF
:102470009B012033B3FBF0F389B2A3F50063032281
:10248000AFE71146EFE700BF300104200000000075
:102490002B4A136803F00303022B07D0032B43D00E
:1024A000284B29481860294B186070472DE9F041E6
:1024B0001368D2F80C80D568D468D068C4F30024BF
:1024C000C0F3004001F0D6F900F098FE0022204B46
:1024D00000F036FD064608F01F000F4601F0CAF96D
:1024E00000F08CFE02460B463046394600F0DAFE1C
:1024F00011A3D3E9002300F0D5FE0646C5F3C3209F
:102500000F4601F0B7F900F079FE0B460246394656
:10251000304600F0F1FF01F0D7F80A4BE0401860B8
:102520000A4B1860BDE8F0810A4A064B1068186033
:10253000064B1860704700BF00000000A8CB784130
:1025400000C304400C14042080BA8C011014042031
:102550000000F03F1C14042044F659010D4BD960D3
:102560005A6922F003025A61D9605A6942F00102A5
:102570005A61EFF3108372B6074A08484FF4E0211E
:1025800090605162BFF36F8FBFF34F8F83F310885A
:10259000704700BF00C0044000ED00E000000000F4
:1025A000FEE700BF08B50B4A0B4B9A420DD2D04351
:1025B0000A4918440B4620F003000430084453F83D
:1025C000041B834242F8041BF9D1FFF7C5FFFDF756
:1025D00015FE00BF00000420F8090420B0EB000045
:1025E000202908B50AD0402910D1094B00211868CC
:1025F000FFF718FC074B01221A7008BD044B00219D
:102600001868FFF791FB044B01221A7008BD00BF48
:102610000C1904203C1404208415042008B5064B32
:102620001868FFF74BFD054B102118700220FFF7CB
:1026300015FA002008BD00BF0C1904200017042063
:1026400008B560B1012808D101460220FFF70EFA53
:10265000012000F033FB002008BD012008BD01214E
:102660000220FFF7FBF9012000F028FB002008BD45
:10267000084B10B51868FEF7CDFD074B187008B170
:10268000012010BD044610210220FFF7E7F9204683
:1026900010BD00BF381404200117042008B5102114
:1026A0000220FFF7DBF9BDE8084010210220FFF708
:1026B000DDB900BF70B52B4D82B04FF402730095A9
:1026C000294A03210020FFF729FC284C207010B173
:1026D000012002B070BD0246014603232868FFF7BF
:1026E0007BFD20700028F3D1022628683246009630
:1026F0001F230721FFF77EFD20700028E8D12A68FC
:102700001B491046FFF762FD20700028E0D101222E
:102710001021FFF773F920700028D9D10122202160
:10272000FFF73CF920700028D2D101221146304633
:10273000FFF734F920700028CAD110213046FFF786
:102740008DF920700028C3D1304601221021FFF7F7
:1027500025F9054620700028BAD1FFF79FFF2846CB
:10276000B7E700BF0C190420041704200017042049
:10277000E125000038B5174D4FF4A2722B461649DB
:102780000020FEF78FFD154C207008B1012038BDE8
:1027900013492868FEF76AFD20700028F6D1012150
:1027A0002868FEF7E7FD20700028EFD10121286896
:1027B000FEF74CFD20700028E8D101462868FEF79E
:1027C000E5FD054620700028E0D1FFF767FF2846A9
:1027D00038BD00BF38140420401404200117042021
:1027E000E093040038B504460D4602201021FFF79F
:1027F00035F9054B2A4621461868FFF7ABFCFFF771
:102800004DFF002038BD00BF0C19042010B5044650
:1028100010210220FFF722F9204601F021FA054B92
:10282000024621461868FFF759FCFFF737FF0020E2
:1028300010BD00BF0C1904202DE9F041124D0446D3
:102840008846022010211F461646FFF707F92B780D
:1028500013B10120BDE8F0810C4B0D4A19461068F8
:10286000012283E85000C3F80880DF601A615A61D2
:10287000FEF71CFE044628700028EAD1FFF70EFF81
:102880002046BDE8F08100BF011704202014042079
:102890003814042008B5064B002293F900001146B5
:1028A000FFF7F6F8BDE808400248FEF793BA00BF0C
:1028B000440104208515042038B5374CFFF7AEFEDF
:1028C0000022364994F90000FFF7E2F8054601229C
:1028D00011461046FFF792F88DB100F0AFFA94F967
:1028E0000000FFF71FF82C4B0446A8B32C4B002226
:1028F0001A70FFF7DFFE00F08FFA012038BD0121CA
:1029000094F90000FEF7CEFF054600F097FA002D7F
:10291000E5D12A4623490120FEF7D4F90028DED06C
:1029200094F900002A462946FFF7B2F8044638B168
:102930001B4B1D70FFF7BEFE00F06EFA012038BD84
:10294000012108462246FFF759F8154B1C70FFF786
:10295000B1FE00F061FAD0E793F90000224621466B
:10296000FFF796F8054678B9012108462A46FFF791
:1029700045F804460A4B1D70FFF79CFE00F04CFA28
:10298000002CBAD1204638BD054B1C70FFF792FED3
:1029900000F042FAB1E700BF44010420952800008E
:1029A000861504208515042038B5174C10222346BF
:1029B0001649FEF7B1FD08B1012038BD226814495F
:1029C0001046FEF7F9FD0028F6D103212068FEF736
:1029D000F9FD0028F0D120212068FEF73BFE0146DA
:1029E0000028E9D12068FEF721FE01460028E3D146
:1029F0002068FEF725FE05460028DDD1206801216C
:102A0000FEF7EAFD284638BD101904208815042079
:102A1000392A000010B5074C00212068FEF7DCFDC4
:102A200008B1012010BD2068FEF7AAFD003018BFD4
:102A3000012010BD10190420012900D07047024B5D
:102A40001970FFF7E7BF00BF86150420F0B50546F3
:102A500083B0042370240DEB03028DF800400F4671
:102A600000241946684650268DF803508DF8016001
:102A70008DF802408DF804408DF805408DF8064031
:102A80008DF80740FFF7D8FE9DF80730022B02D0E3
:102A9000012003B0F0BD032319462D0A01AA6846A0
:102AA0008DF800508DF801708DF802408DF80440CB
:102AB0008DF805408DF806408DF80740FFF7BCFE05
:102AC0009DF80630022BE3D1012301AA684619467E
:102AD0008DF80040FFF7B0FE2046DAE72DE9F0431D
:102AE0001F4E8B08A6FB0336F6084FEA8618C6EB86
:102AF0000805AD0083B081464F1B56B1044605441E
:102B0000FC23204619461C44164AFFF795FEAC42AA
:102B1000F6D1D7B902231946002401AA68468DF8D8
:102B200000408DF80140FFF787FE9DF80530022B2D
:102B300003D0012003B0BDE8F0839DF80400AA385B
:102B400018BF012003B0BDE8F083BBB2C6EB08009C
:102B500009EB80001946034AFFF76EFEDAE700BF73
:102B600021088220981504202DE9F84F82468946D5
:102B700002201021FEF772FF012210210220FEF731
:102B80000DFF4FF480510020FEF768FF01224FF443
:102B900080510020FEF702FFFFF7ECFD18B1012481
:102BA0002046BDE8F88F04464FF48051FEF756FFEB
:102BB0000A2000F083F820464FF48051FEF756FFBC
:102BC0005FEA990741D051460AEB8700FF2551F88B
:102BD000042B130C83EA1263534083EA12235D40F3
:102BE0008142EDB2F3D16E2000F068F841F28838EE
:102BF0004FF0000B012605E03443E4B2012C13D161
:102C0000C3451FD029463846FFF720FFC4B20BF159
:102C1000010B002CF0D149465046FFF75FFF0646F6
:102C20003443E4B2012CEBD0FFF722FD0028B6D1EB
:102C300041F28834C4EB0B04B4FA84F464092046EE
:102C4000BDE8F88FFFF714FDAAE7FF25CBE700BF2B
:102C500038B5104C102122460020FEF70FFF00204F
:102C6000FFF7A2FE23880C4D3BB90BE0094A102167
:102C70000020FEF703FF238823B12B78002BF5D02B
:102C8000012038BD2C78002CFAD1FFF7C3FE204676
:102C900038BD00BF141904208615042038B5054638
:102CA0000020FFF7CDFCFFF7D3FF08B1012038BDAE
:102CB00004462846FFF7AAFD204638BD38B1002259
:102CC00040F64853013BFDD101328242F8D17047B2
:102CD00008B500F023F9FDF7CBFAFDF7F9FE08B1CE
:102CE000012008BD01210846FDF74EFF0028F7D15D
:102CF0000121FDF749FF0028F2D134210348FEF7F6
:102D0000B1FD003018BF012008BD00BF941604209B
:102D100010B5C0B0FFF7DCFF10B1012040B010BD0E
:102D200044F614210F48FFF71FFF0028F5D10E4C81
:102D3000FFF7C0FC00F070F823787BB9684600F01C
:102D400049F86846FFF7AAFF0A2240F64853013BBC
:102D5000FDD1013AF9D12378002BEFD0FFF7ACFD7C
:102D6000ECE700BF649E00008615042010B5002328
:102D7000ADF5816D19464FF47F7203A8029300F000
:102D80003BFE012300930F4A0F4B4FF4806102A8D2
:102D900000F0BCFE02A800F063FF02AB1C1800F1BB
:102DA000080103232046094A00F0B0FE084B02A8A0
:102DB0001A889B782281A37200F0A0F8C0B20DF5AA
:102DC000816D10BD84E8000078E8000094E8000000
:102DD0009CE8000030B54023ADF20C4D0C4A05468E
:102DE00000934FF480610B4B02A800F08FFE02A805
:102DF00000F084F802A8272100F02CF804460DF119
:102E00001101284600F0CEFE20460DF20C4D30BDDB
:102E1000A0E8000078E8000008B504210120FEF7D2
:102E20001DFE012210460421FEF7B8FD43F698204E
:102E3000FFF744FFFFF79AFF002008BD08B5042103
:102E40000120FEF713FE012210460421FEF7A6FD25
:102E5000002008BDFFF7C6BC2DE9F04101F1FF38A5
:102E6000B8F1000F14DD002704463D4603E00127BA
:102E7000013545450CD020460121FFF7B3FC2378EE
:102E800001340A2BF3D1002FF2D0681CBDE8F08189
:102E90000020BDE8F08100BFF0B50746ADF20C4D53
:102EA00002AD4FF480612846FFF7D6FFC0B200287C
:102EB000F7D0002423460DF1070205E0002C08BFDF
:102EC00014460133834215D012F8011F0A29F5D1A7
:102ED000002CF6D0002601A90A222046EE5400F06C
:102EE00081FF019BA3421ABF3860304601200DF2DA
:102EF0000C4DF0BD002CD4D0ECE700BF10B504465B
:102F000082B00120FFF79CFB2046FFF77FFC01A861
:102F1000FFF7C2FF019802B010BD00BF00F000B87B
:102F2000024B034A00201A60704700BF00000240B5
:102F30005500500081F0004102E000BF83F00043E3
:102F400030B54FEA41044FEA430594EA050F08BF44
:102F500090EA020F1FBF54EA000C55EA020C7FEA08
:102F6000645C7FEA655C00F0E2804FEA5454D4EB85
:102F70005555B8BF6D420CDD2C4480EA020281EA4F
:102F8000030382EA000083EA010180EA020281EA87
:102F90000303362D88BF30BD11F0004F4FEA0131D9
:102FA0004FF4801C4CEA113102D0404261EB4101E8
:102FB00013F0004F4FEA03334CEA133302D052426E
:102FC00063EB430394EA050F00F0A780A4F101042A
:102FD000D5F1200E0DDB02FA0EFC22FA05F2801864
:102FE00041F1000103FA0EF2801843FA05F359414A
:102FF0000EE0A5F120050EF1200E012A03FA0EFCC9
:1030000028BF4CF0020C43FA05F3C01851EBE371F2
:1030100001F0004507D54FF0000EDCF1000C7EEB0F
:1030200000006EEB0101B1F5801F1BD3B1F5001F4D
:103030000CD349085FEA30004FEA3C0C04F101046C
:103040004FEA445212F5800F80F09A80BCF1004F95
:1030500008BF5FEA500C50F1000041EB045141EA17
:10306000050130BD5FEA4C0C404141EB010111F418
:10307000801FA4F10104E9D191F0000F04BF0146C3
:103080000020B1FA81F308BF2033A3F10B03B3F1A1
:1030900020020CDA0C3208DD02F1140CC2F10C0231
:1030A00001FA0CF021FA02F10CE002F11402D8BF8F
:1030B000C2F1200C01FA02F120FA0CFCDCBF41EA5B
:1030C0000C019040E41AA2BF01EB0451294330BD2A
:1030D0006FEA04041F3C1CDA0C340EDC04F1140407
:1030E000C4F1200220FA04F001FA02F340EA0300DE
:1030F00021FA04F345EA030130BDC4F10C04C4F124
:10310000200220FA02F001FA04F340EA0300294603
:1031100030BD21FA04F0294630BD94F0000F83F44D
:10312000801306BF81F480110134013D4EE77FEA30
:10313000645C18BF7FEA655C29D094EA050F08BF7C
:1031400090EA020F05D054EA000C04BF194610465D
:1031500030BD91EA030F1EBF0021002030BD5FEAA1
:10316000545C05D14000494128BF41F0004130BDC9
:1031700014F580043CBF01F5801130BD01F000451D
:1031800045F0FE4141F470014FF0000030BD7FEA90
:10319000645C1ABF194610467FEA655C1CBF0B468B
:1031A000024650EA013406BF52EA033591EA030FA2
:1031B00041F4002130BD00BF90F0000F04BF00219A
:1031C000704730B54FF4806404F132044FF00005CD
:1031D0004FF0000150E700BF90F0000F04BF002146
:1031E000704730B54FF4806404F1320410F00045AC
:1031F00048BF40424FF000013EE700BF42004FEAA7
:10320000E2014FEA31014FEA02701FBF12F07F4323
:1032100093F07F4F81F06051704792F0000F14BF20
:1032200093F07F4F704730B54FF4607401F0004564
:1032300021F0004120E700BF50EA010208BF7047BB
:1032400030B54FF000050AE050EA010208BF7047B0
:1032500030B511F0004502D5404261EB41014FF419
:10326000806404F132045FEA915C3FF4DCAE4FF01D
:1032700003025FEADC0C18BF03325FEADC0C18BF04
:10328000033202EBDC02C2F1200300FA03FC20FA55
:1032900002F001FA03FE40EA0E0021FA02F11444A2
:1032A000C1E600BF70B54FF0FF0C4CF4E06C1CEAB7
:1032B00011541DBF1CEA135594EA0C0F95EA0C0F2C
:1032C00000F0DEF82C4481EA030621EA4C5123EA9F
:1032D0004C5350EA013518BF52EA033541F48011CE
:1032E00043F4801338D0A0FB02CE4FF00005E1FB81
:1032F00002E506F00042E0FB03E54FF00006E1FBCB
:1033000003569CF0000F18BF4EF0010EA4F1FF040D
:10331000B6F5007F64F5407404D25FEA4E0E6D414D
:1033200046EB060642EAC62141EA55514FEAC5205E
:1033300040EA5E504FEACE2EB4F1FD0C88BFBCF5DA
:10334000E06F1ED8BEF1004F08BF5FEA500E50F18B
:10335000000041EB045170BD06F0004646EA010151
:1033600040EA020081EA0301B4EB5C04C2BFD4EB83
:103370000C0541EA045170BD41F480114FF0000E7C
:10338000013C00F3AB8014F1360FDEBF002001F0EA
:10339000004170BDC4F10004203C35DA0C341BDC64
:1033A00004F11404C4F1200500FA05F320FA04F036
:1033B00001FA05F240EA020001F0004221F000416A
:1033C00010EBD37021FA04F642EB06015EEA430EDD
:1033D00008BF20EAD37070BDC4F10C04C4F120050D
:1033E00000FA04F320FA05F001FA04F240EA0200C0
:1033F00001F0004110EBD37041F100015EEA430E91
:1034000008BF20EAD37070BDC4F1200500FA05F2B0
:103410004EEA020E20FA04F301FA05F243EA02032F
:1034200021FA04F001F0004121FA04F220EA02003E
:1034300000EBD3705EEA430E08BF20EAD37070BD84
:1034400094F0000F0FD101F00046400041EB010164
:1034500011F4801F08BF013CF7D041EA060195F046
:10346000000F18BF704703F00046520043EB030300
:1034700013F4801F08BF013DF7D043EA06037047ED
:1034800094EA0C0F0CEA135518BF95EA0C0F0CD0F8
:1034900050EA410618BF52EA4306D1D181EA03013E
:1034A00001F000414FF0000070BD50EA410606BF38
:1034B0001046194652EA430619D094EA0C0F02D17D
:1034C00050EA013613D195EA0C0F05D152EA0336C2
:1034D0001CBF104619460AD181EA030101F00041E0
:1034E00041F0FE4141F470014FF0000070BD41F029
:1034F000FE4141F4780170BD70B54FF0FF0C4CF403
:10350000E06C1CEA11541DBF1CEA135594EA0C0F21
:1035100095EA0C0F00F0A7F8A4EB050481EA030E6E
:1035200052EA03354FEA013100F088804FEA033355
:103530004FF0805545EA131343EA12634FEA022223
:1035400045EA111545EA10654FEA00260EF00041E4
:103550009D4208BF964244F1FD0404F5407402D236
:103560005B084FEA3202B61A65EB03055B084FEAC7
:1035700032024FF480104FF4002CB6EB020E75EBC4
:10358000030E22BFB61A754640EA0C005B084FEAEC
:103590003202B6EB020E75EB030E22BFB61A754669
:1035A00040EA5C005B084FEA3202B6EB020E75EBB4
:1035B000030E22BFB61A754640EA9C005B084FEA2C
:1035C0003202B6EB020E75EB030E22BFB61A754639
:1035D00040EADC0055EA060E18D04FEA051545EA28
:1035E00016754FEA06164FEAC30343EA52734FEAD1
:1035F000C2025FEA1C1CC0D111F4801F0BD141EA4A
:1036000000014FF000004FF0004CB6E711F4801FAE
:1036100004BF01430020B4F1FD0C88BFBCF5E06F8E
:103620003FF6AFAEB5EB030C04BFB6EB020C5FEA9E
:10363000500C50F1000041EB045170BD0EF0004EF3
:103640004EEA113114EB5C04C2BFD4EB0C0541EA25
:10365000045170BD41F480114FF0000E013C90E622
:1036600045EA060E8DE60CEA135594EA0C0F08BFE6
:1036700095EA0C0F3FF43BAF94EA0C0F0AD150EAE5
:1036800001347FF434AF95EA0C0F7FF425AF104678
:1036900019462CE795EA0C0F06D152EA03353FF4A0
:1036A000FDAE1046194622E750EA410618BF52EA1D
:1036B00043067FF4C5AE50EA41047FF40DAF52EAF1
:1036C00043057FF4EBAE12E74A0011D212F5001267
:1036D00011D20DD56FF47873B3EB62520ED44FEA6A
:1036E000C12343F0004343EA505323FA02F07047EA
:1036F0004FF00000704750EA013002D14FF0FF3028
:1037000070474FF00000704780F0004002E000BFBB
:1037100081F0004142001FBF5FEA410392EA030FBC
:103720007FEA226C7FEA236C6AD04FEA1262D2EB06
:103730001363C1BFD218414048404140B8BF5B420B
:10374000192B88BF704710F0004F40F4000020F0A4
:103750007F4018BF404211F0004F41F4000121F0BA
:103760007F4118BF494292EA030F3FD0A2F1010204
:1037700041FA03FC10EB0C00C3F1200301FA03F142
:1037800000F0004302D5494260EB4000B0F5000F65
:1037900013D3B0F1807F06D340084FEA310102F124
:1037A0000102FE2A51D2B1F1004F40EBC25008BFD6
:1037B00020F0010040EA03007047490040EB0000A0
:1037C00010F4000FA2F10102EDD1B0FA80FCACF1CF
:1037D000080CB2EB0C0200FA0CF0AABF00EBC250CE
:1037E00052421843BCBFD0401843704792F0000FBC
:1037F00081F4000106BF80F400000132013BB5E70F
:103800004FEA41037FEA226C18BF7FEA236C21D084
:1038100092EA030F04D092F0000F08BF08467047E9
:1038200090EA010F1CBF0020704712F07F4F04D1B7
:10383000400028BF40F00040704712F100723CBFCA
:1038400000F50000704700F0004343F0FE4040F4F4
:10385000000070477FEA226216BF08467FEA2363B2
:103860000146420206BF5FEA412390EA010F40F49D
:10387000800070474FF0000304E000BF10F00043E9
:1038800048BF40425FEA000C08BF704743F09643D0
:1038900001464FF000001CE050EA010208BF7047EB
:1038A0004FF000030AE000BF50EA010208BF704772
:1038B00011F0004302D5404261EB41015FEA010C87
:1038C00002BF84460146002043F0B64308BFA3F17F
:1038D0008053A3F50003BCFA8CF2083AA3EBC25361
:1038E00010DB01FA02FC634400FA02FCC2F1200280
:1038F000BCF1004F20FA02F243EB020008BF20F0B7
:103900000100704702F1200201FA02FCC2F120021C
:1039100050EA4C0021FA02F243EB020008BF20EA11
:10392000DC70704700B50A4C0546206885B01C461F
:10393000C06852B1074B8DE80A0002922B4622461E
:10394000054900F01DF802F047FE044B1A46F2E765
:1039500070050420B4E80000C4E80000B0E80000EE
:1039600008B50021044602F0CBFD044B1868C36B78
:1039700003B19847204606F06FF900BFF8E8000051
:103980000EB430B582B005AC54F8042B054D014699
:1039900023462868019401F01BFE02B0BDE83040C8
:1039A00003B070477005042070B50F4E0F4D761BA5
:1039B000B61018BF002405D0013455F8043B9847D1
:1039C000A642F9D10A4E0B4D06F048F9761BB61007
:1039D00018BF002406D0013455F8043B9847A6428E
:1039E000F9D170BD70BD00BFE8090420E8090420CA
:1039F000F0090420E809042070B4840746D0541E5E
:103A0000002A41D0CDB2034602E0621EE4B3144660
:103A100003F8015B9A07F8D1032C2ED9CDB245EA01
:103A200005250F2C45EA054519D9264603F1100254
:103A3000103E0F2E42F8105C42F80C5C42F8085C15
:103A400042F8045C02F11002F2D8A4F1100222F054
:103A50000F0204F00F041032032C13440DD91E463C
:103A60002246043A032A46F8045BFAD8221F22F0C1
:103A700003020432134404F003042CB1C9B21C4401
:103A800003F8011BA342FBD170BC704714460346E8
:103A9000C2E700BFF0B5054689B008460C4600F005
:103AA000DFF8431C144F0393AB6B012604A90222D9
:103AB00004940590AC680697079601910292B3B101
:103AC000B4F90C309A0406D4626E43F4005322F425
:103AD0000052A38162662146284601AA04F02EF80E
:103AE000002814BF4FF0FF300A2009B0F0BD28466F
:103AF00003F074FEE4E700BFFCE80000024B01465F
:103B00001868FFF7C7BF00BF700504200CB4F0B5FC
:103B1000234B00299DB01D683CDB4FF402730C461B
:103B200002900690ADF814304FF6FF7723AE15D013
:103B30004C1E229A334602A9284604940794ADF8F5
:103B40001670019600F05AF9421C19DB029B002204
:103B50001A701DB0BDE8F04002B070473346229A9B
:103B600002A9284604940794ADF81670019600F057
:103B700045F9431C07DB1DB0BDE8F04002B07047BB
:103B80008B232B60E2E78B232B601DB0BDE8F04058
:103B900002B070478B232B604FF0FF30EBE700BF84
:103BA0007005042080EA0102844612F0030F4FD111
:103BB00011F0030F32D14DF8044D11F0040F51F8FC
:103BC000043B0BD0A3F101329A4312F0803F04BFB3
:103BD0004CF8043B51F8043B16D100BF51F8044B9C
:103BE000A3F101329A4312F0803FA4F101320BD1CC
:103BF0004CF8043BA24312F0803F04BF51F8043B51
:103C00004CF8044BEAD023460CF8013B13F0FF0FAD
:103C10004FEA3323F8D15DF8044B704711F0010FE0
:103C200006D011F8012B0CF8012B002A08BF7047B1
:103C300011F0020FBFD031F8022B12F0FF0F16BFA8
:103C40002CF8022B8CF8002012F47F4FB3D1704770
:103C500011F8012B0CF8012B002AF9D1704700BF95
:103C600020F0030110F00300C0F1000051F8043B04
:103C700000F1040C4FEACC0C6FF000021CBF22FADA
:103C80000CF213434FF0010C4CEA0C2C4CEA0C4C98
:103C9000A3EB0C0222EA030212EACC1204BF51F891
:103CA000043B0430F4D0C2F1000102EA0102B2FA8E
:103CB00082F2C2F11F0200EBD20070472DE9F04FF3
:103CC000474C83460E46D4F800E000E026463446D2
:103CD00014F8015B0EEB0500407800F0080000F0DE
:103CE000FF080028F2D12D2D5CD02B2D04BF757854
:103CF000B41C002B3ED0102B60D09A46B8F1000FB8
:103D00000CBF6FF000404FF00040B0FBFAF9002705
:103D1000BC460AFB19000CE0303DAB4219DD7E1CAD
:103D200005D0CC4523D820D00AFB0C5C012714F821
:103D3000015B0EEB0506767816F0040FECD116F059
:103D4000030606D0012E14BF57263726AD1BAB4203
:103D5000E5DC7B1C16D0B8F1000F10D16046002ABC
:103D600039D0DFB91160BDE8F08F8542DCDD4FF05E
:103D7000FF37DCE7302D1AD00A239A46BEE7CCF194
:103D8000000CEBE7B8F1000F4FF022030CBF6FF00F
:103D900000404FF00040CBF80030F2B1611E1160DE
:103DA000BDE8F08FB41C75784FF00108A1E72378C7
:103DB00003F0DF03582B08D008239EE7302D9CD159
:103DC000207800F0DF00582897D14FF0100A65786E
:103DD0005346023492E7BDE8F08FBDE8F08F00BF94
:103DE0007405042010B4044C13460A4601462068AA
:103DF00010BCFFF763BF00BF700504202DE9F04F32
:103E0000C1B00C46099115460E930A9004F04CF887
:103E1000036818461793FFF723FFA38916901E0621
:103E200003D52369002B01F05D8100231A46A846C3
:103E30000DF1C009DFF860A4129319930B93259339
:103E40002493CDF88C901492159298F80030444643
:103E5000EBB1252B02D11AE0252B03D014F8013F3A
:103E6000002BF9D1C8EB04058DB1249B259A0133B1
:103E70002A44072BC9F80080C9F8045025922493DE
:103E800000F3328309F108090B9B2B440B93237831
:103E9000002B00F0EA814FF0FF3B5D4600231A46FD
:103EA0008DF86F3019460C930793637804F101087D
:103EB00008F10108A3F12000582800F24586DFE848
:103EC00010F0F30343064306FC0343064306430690
:103ED0004306430643065900040443066600D00324
:103EE0004306EC03BC05BC05BC05BC05BC05BC0514
:103EF000BC05BC05BC054306430643064306430612
:103F000043064306430643064306E205F704430619
:103F1000F7044306430643064306420543064306A9
:103F20004A05430643064306430643067405430613
:103F30004306CD05430643064306430643064306B0
:103F400043064306430643061D060E06F704F70420
:103F5000F70415060E0643064306A3044306A80508
:103F6000AE046D000A0443061204430635044306FA
:103F7000430670040E9C236818460C9323460028C1
:103F800003F104030E9306DA0C9B5B420C93079B30
:103F900043F00403079398F8003089E7AB460E9A84
:103FA0000027079830217823BB4514688DF87010DE
:103FB00002F104024FF000058DF871308DF86F703A
:103FC00040F00201C0F23D8620F0800141F0020184
:103FD000079154EA05010E921193AD4800F031812A
:103FE00030AE230943EA0573290904F00F020D4698
:103FF0001C46835C06F8013D54EA0503F1D130AB61
:104000009B1B0D930D9B5B45B8BF5B46089300233C
:10401000139317B1089B01330893079B13F0020316
:104020000F9302D0089B02330893079B13F084037D
:10403000109340F018810C9B089A9D1A002D40F3B4
:104040001281102D2599249A924F27DD1896484603
:104050001024B946099E2F460A9D04E0103F102FF8
:1040600000F1080016DD01328A4B1031072A259134
:10407000249280E81800F1DD23AA3146284605F095
:10408000FBF8002840F0F880103F102F30A8259949
:10409000249AE8DC3D464F468146189E01326C1852
:1040A000072A25942492C9F80070C9F8045000F337
:1040B000D0809DF86F7009F1080977B1249B013415
:1040C00001330DF16F010122072B2594249389E818
:1040D000060000F3208209F108090F9B6BB1249BB5
:1040E000023401331CA90222072B2594249389E86A
:1040F000060000F31C8209F10809109B802B00F0D8
:104100002C810D9BC3EB0B07002F33DD624A102F70
:10411000249B0F9222DD22464FF0100B0A9D099C32
:1041200004E0103F102F09F1080916DD01331032A9
:10413000072B2592249389E8000CF2DD23AA21465F
:10414000284605F099F8002840F09680103F102F7F
:104150000DF1C009259A249BE8DC144601330F9A1F
:104160003C44072B2594249389E8840000F3C781FD
:1041700009F10809079BDA0500F19080249B0D994D
:1041800001330C44072B2594C9F80060C9F80410CA
:10419000249300F3E28109F10809079B590736D5FA
:1041A0000C9B089A9D1A002D31DD102D249B394F50
:1041B00022DD22461026DDF828B0099C04E0103DDF
:1041C000102D09F1080916DD013332491032072B91
:1041D0002592249389E84200F1DD23AA214658461E
:1041E00005F04AF8002847D1103D102D0DF1C00907
:1041F000259A249BE8DC144601332C44072B259494
:104200002493C9F80070C9F8045000F392840B9B02
:104210000C9A08998A42ACBF9B185B180B93002C30
:1042200040F05981002324930DF1C0090DE60027C9
:10423000BB458DF86F70C0F20E85079B23F080039D
:104240000793BBF1000F00F06C84002400250027C9
:10425000C6E623AA09990A9805F00EF860B99DF8F8
:104260006F700DF1C009259C27E7259B23B10A98A3
:1042700023AA099905F000F8099B9B8913F0400FC8
:104280000B9B18BF4FF0FF33184641B0BDE8F08FCD
:1042900034E9000000E9000054E90000119B652B9F
:1042A00040F39F80149815990022002305F086FAA8
:1042B000002800F06381249BAE49013301340122C0
:1042C000072B2594249389E8060000F3538409F111
:1042D00008091D9B129A934203DB079BDB077FF5BE
:1042E0005CAF249B16990133179A0C44072B259435
:1042F000C9F80020C9F80410249300F3E68609F1F8
:104300000809129B5D1E002D7FF747AF9A4A102DBA
:10431000249B0F9240F3178110260A9FDDF824B0EA
:1043200005E009F10809103D102D40F30C8101331F
:104330001034072B25942493C9F800A0C9F8046011
:10434000EFDD23AA5946384604F096FF002893D1A2
:104350000DF1C009259C249BE5E70C9B089A9F1A48
:10436000002F7FF7CEAE844A102F249B0F922BDDB7
:104370004A462146B946102537460A9C099E06E062
:10438000A9F11009B9F1100F02F1080218DD01338B
:104390001031072B25912493C2F800A05560EFDD62
:1043A00023AA3146204604F067FF00287FF464AF5B
:1043B000A9F11009B9F1100F30AA2599249BE6DC68
:1043C0003E460C464F46914601330F9A3C44072B1C
:1043D0002594249389E8840000F32B8509F10809CA
:1043E0008FE6129B249D012B04F1010405F10105C8
:1043F00040F3E8840123072D2594C9F80060249533
:10440000C9F8043000F3F98409F10809169A013556
:10441000179B1444072D25942495C9F80030C9F83A
:10442000042000F3F88409F1080900231498159971
:10443000002205F0C3F9129B002800F0EA805E1EFE
:10444000002E40F3F5804C4B102E0F932CDDCDF851
:1044500034801027B046DDF828B0099E06E0A8F1A8
:104460001008B8F1100F09F108091ADD01351034F0
:10447000072D25942495C9F800A0C9F80470EEDD35
:1044800023AA3146584604F0F7FE00287FF4F4AE24
:10449000A8F11008B8F1100F0DF1C009259C249D5A
:1044A000E4DC4646DDF8348001350F9B3444072DAB
:1044B0002594249589E8480040F3B88023AA0999F7
:1044C0000A9804F0D9FE00287FF4D6AE259C249DDE
:1044D0000DF1C009ACE023AA09990A9804F0CCFEBA
:1044E00000283FF49FAEC7E623AA09990A9804F072
:1044F000C3FE00287FF4C0AE0DF1C009C4E423AAB6
:1045000009990A9804F0B8FE00287FF4B5AE0DF1C1
:10451000C009259C2EE623AA09990A9804F0ACFE4E
:1045200000287FF4A9AE0DF1C009259CD5E523AA8A
:1045300009990A9804F0A0FE00287FF49DAE0DF1C1
:10454000C009259CD9E501330F9A2C44072B2594EB
:10455000249389E824007FF71EAE23AA09990A98BC
:1045600004F08AFE00287FF487AE259C0DF1C00977
:1045700013E600BF50E9000054E900001D9D002D26
:1045800040F30E83139B129A9342A8BF1346002B4D
:104590001D460DDD249B2C440133072B2594C9F8BF
:1045A0000060C9F80450249300F3158609F1080946
:1045B000139B002DA8BF5B1B002B1D4640F3A0835F
:1045C000B94A102D249B0F9240F3458522461027AF
:1045D000DDF828B0099C05E009F10809103D102D0F
:1045E00040F3388501331032072B25922493C9F804
:1045F00000A0C9F80470EFDD23AA2146584604F054
:104600003BFE00287FF438AE0DF1C009259A249BAB
:10461000E4E7013B013501361C44072DC9F8006071
:1046200024952594C9F804303FF748AF09F10809EB
:10463000199A013514441FAB072D25942495C9F808
:104640000420C9F800307FF7A6AD23AA09990A987B
:1046500004F012FE00287FF40FAE0DF1C009259C76
:104660009BE598F8003008F101042A2B00F02B8715
:10467000A3F13000092898BF002500F2AF8614F896
:10468000013B05EB850500EB4505A3F1300009284A
:10469000F5D945EAE575A0460CE4079B43F0800395
:1046A000079398F8003003E498F8003000297FF46D
:1046B000FFAB01222021FFF7FBBB079B43F0010367
:1046C000079398F80030FFF7F3BB98F80030012209
:1046D0002B21FFF7EDBB079B43F02003079398F8CE
:1046E0000030FFF7E5BB0E9AAB4616680025119324
:1046F0008DF86F50141D002E00F0E585BBF1000F02
:10470000C0F23F855A462946304603F0F1FE0028A4
:1047100000F05886AB46831B0D9323EAE3730E9497
:104720000893CDF84CB09DF86F7072E41193AB46CE
:10473000002A40F0ED86079A12F0200300F0438132
:104740000E9C0027073424F0070303F10801BB4542
:104750000E91D3E900458DF86F70C0F2C18222F04E
:104760008003079354EA050300F04881002D08BF39
:104770000A2CC0F0488130AE204629460A22002388
:1047800005F08CF8303206F8012D2046294600232A
:104790000A2205F083F804460D4654EA0503EBD1DE
:1047A0002DE41193AB46002A40F0CA86079B3F4890
:1047B0009D0640F15D810E9C073424F0070303F150
:1047C00008020E92D3E90045079A12F0010700F0A3
:1047D000468254EA05033FF42AAD9DF844200027A1
:1047E0008DF87120079A3023BB458DF870308DF815
:1047F0006F7042F00203C0F28D8522F0800343F017
:1048000002030793FFF7ECBB98F800306C2B00F025
:104810005284079840F010000790FFF749BB1193AE
:10482000AB46002A40F09486079A12F0200300F06D
:10483000A0800E9C0027073424F0070303F1080131
:10484000BB450E91D3E900458DF86F700BDB22F06C
:104850008003079354EA050306D1BBF1000F00F073
:10486000A28500240025002730AEE20842EA457206
:10487000E90804F007030D461446303354EA0502F4
:1048800006F8013DF1D1079AD1077FF5B8AB302B7F
:104890003FF4B5AB3022731E06F8012C30AAD21AB1
:1048A0000D921E46FFF7AEBB54E9000034E900004C
:1048B0001193AB46002A40F04786079B0E9C1A07CF
:1048C00004F1070440F16C8324F0070303F10802AC
:1048D0000E921A685B6814921593159B149D23F031
:1048E0000044284621464FF0FF32A94B04F098FFC0
:1048F000002840F0CD82284621464FF0FF32A44BDD
:1049000004F070FF002840F0C3821498159900222B
:10491000002304F05DFF002840F0F6849DF86F70DE
:1049200007999C4E21F080019B4B0791119903221E
:104930004FF0000B08924729D8BF1E460D92CDF8C4
:104940004CB0FFF766BB079B43F00803079398F84A
:104950000030FFF7ADBA1193AB46002A40F0EC856A
:10496000079B43F010030793079A12F020037FF48C
:1049700060AF079911F0100200F068820E98BBF149
:10498000000F024604688DF86F3002F104024FF008
:104990000005C0F2C28421F08001079154EA0501AC
:1049A0000E923FF45AAF1F465EE71193AB46002AC2
:1049B00040F0BE85079B43F010030793079A12F05F
:1049C00020037FF4BDAE079911F0100200F026839A
:1049D0000E98BBF1000F024604688DF86F3002F1AB
:1049E00004024FF00005C0F28C8421F08001079191
:1049F00054EA05010E921F467FF4B8AEBBF1000FDA
:104A000000F09080002440AE303406F8414DFFF7AE
:104A1000F6BA002A40F08885079B9B0640F1CA82BF
:104A20000E9A134604330E930B9B1168DD171A463A
:104A30002B46C1E90023FFF708BAA3F13000002399
:104A40001C4618F8013B04EB840400EB4404A3F17A
:104A500030000928F5D90C94FFF72CBA1193AB4616
:104A6000002A40F05D85079B4C489D063FF5A3AEAC
:104A7000079BDC0640F1B5820E9A002513460433ED
:104A800014680E93A0E61193AB46002A40F04485CB
:104A9000079B43F010030793079B980640F1F180B2
:104AA0000E9C073424F00704D4E9002304F1080124
:104AB0001D4614460E91002A73F10003C0F2F280E5
:104AC000BBF1000F9DF86F70C0F20A81079B23F0C5
:104AD0008003079354EA05037FF448AE8EE71193F1
:104AE000AB46002AD8D08DF86F10D5E7079B43F06E
:104AF0004003079398F80030FFF7DAB90E99119345
:104B00000A68002301201F468DF86F309B461393DF
:104B10000B1D08908DF898200E930D9026AEFFF790
:104B20007CBA5F464FF0000BCDF834B030AEFFF7E3
:104B300069BA23AA09990A9804F09EFB00287FF419
:104B40009BAB259CFFF763BB1193002A40F0D384F5
:104B5000119A002A3FF489AB002301211F460891D6
:104B60008DF898208DF86F309B4613930D9126AEEB
:104B7000FFF753BA23AA09990A9804F07DFB00288D
:104B80007FF47AAB0DF1C009259CFFF7A2BB00BFF3
:104B9000FFFFEF7F14E9000010E9000020E90000AA
:104BA000249BB849013301340122072B2594249317
:104BB00089E8060000F3C28209F108092DB9129BA9
:104BC0001BB9079BDF077FF5E8AA249B16990133E1
:104BD000179A0C44072B2594C9F80020C9F8041033
:104BE000249300F3FF8309F108096D42002D40F37F
:104BF000DB82A54A102D0F9240F34B8322461027EB
:104C0000DDF828B0099C05E009F10809103D102DD8
:104C100040F33E8301331032072B25922493C9F8C9
:104C200000A0C9F80470EFDD23AA2146584604F01D
:104C300023FB00287FF420AB0DF1C009259A249BAB
:104C4000E4E792480791119354EA05030E924FF05E
:104C500000077FF4C5A900240025FFF7C1B9BBF107
:104C6000000F8DF86F70C0F2038222F0800307936B
:104C700054EA05037FF4B4A9BBF1000F7FF4E5AA61
:104C80004FE7079BD90640F1BA810E9A13461C687C
:104C90000433E51722460E932B46002A73F10003D6
:104CA000BFF60EAF64424FF02D0765EB4505BBF133
:104CB000000F8DF86F70FFF659AD079B23F080034E
:104CC000079353E50E9ABBF1000F134614688DF855
:104CD0006F7003F104034FF0000580F2E2810E9340
:104CE00054EA05037FF442AD8DE623AA09990A9898
:104CF00004F0C2FA00287FF4BFAA259C0DF1C00978
:104D0000139A1D9B32441746129A934249DB079A25
:104D1000D50746D412990E44F51BCB1A9D42A8BF65
:104D20001D46002D2E460DDD249A2C440132072A03
:104D30002594C9F80070C9F80450249200F3D28277
:104D400009F10809002EB4BF1D469D1B002D7FF7F9
:104D500024AA4D4A102D249B0F927FF7F4AB102606
:104D60000A9FDDF824B005E009F10809103D102D77
:104D70007FF7E9AB01331034072B25942493C9F84E
:104D800000A0C9F80460EFDD23AA5946384604F0B4
:104D900073FA00287FF470AA0DF1C009259C249BAA
:104DA000E4E7249A1698013217990444072A2594B7
:104DB000C9F80010C9F80400249200F3778209F1C1
:104DC0000809A7E7079BD8073FF514AB0123072D78
:104DD0002594C9F800602495C9F804307FF726AC03
:104DE00023AA09990A9804F047FA00287FF444AAF4
:104DF0000DF1C009259C249D1AE423AA09990A985B
:104E000004F03AFA00287FF437AA0DF1C009259C76
:104E1000249DFFF7FBBA23AA09990A9804F02CFAFB
:104E200000287FF429AA0DF1C009259C249DFFF7D5
:104E3000FCBA23AA09990A9804F01EFA00287FF404
:104E40001BAA0DF1C009259CFFF75BB9079911F06A
:104E5000400700F00F810E98BBF1000F0346048855
:104E60008DF86F2003F104034FF00005C0F2738149
:104E700021F08001079154EA05010E933FF4EDAC57
:104E80001746F1E450E9000054E9000034E900005D
:104E9000149C22462046159C2346214604F0C0FC63
:104EA000002840F0C182119BBBF1FF3F23F020039B
:104EB0000D9300F04982472B00F05081079B43F48B
:104EC00080731093159B1F1E149B0893B7BF3B461E
:104ED000002303F100472D230F93119B662B00F055
:104EE0001F82462B00F00D810D9B21A8452B18BF7A
:104EF0005D461EA908BF0BF10105049003911DA892
:104F000002213B460290089A019500910A9801F00F
:104F100007FC119B0646672B40F03482079BDA079B
:104F200040F16F827419089839460022002304F07A
:104F300045FC002840F04D81219B9C4206D9302140
:104F40005A1C21921970219B9C42F9D89B1B1293E9
:104F50000D9B472B00F03681119B652B40F321827E
:104F6000119B662B1D9B139300F0FE81139A1299DF
:104F70008A42C0F2EC81079BD90700F1448222EA01
:104F8000E2730D92672211920F9A002A40F0EF808F
:104F90000893109B934607939DF86F70FFF739B8FD
:104FA00024F00704236814936368159304F108033D
:104FB0000E9392E4079BDF060BD4079B5E0608D591
:104FC0000E9A136804320E92BDF82C201A80FEF758
:104FD0003CBF0E9A136804320E920B9A1A60FEF7C9
:104FE00034BF0E9A079B002513F0400F134603F1C0
:104FF00004030CBF146814880E93FFF7E5BB079BEE
:105000000E9A13F0400F13463FF441AEB2F9004040
:105010000433E5170E9322462B464CE5079911F011
:1050200040073FF44FAE0E98BBF1000F03460488D3
:105030008DF86F2003F104034FF00005C0F2948057
:1050400021F08001079154EA05010E9317467FF481
:105050008DABD3E4144601330F9A2C44072B2594CF
:10506000249389E824003FF740AE09F1080947E698
:105070000E9AE9E50E9ABBF1000F134614688DF8FD
:105080006F7003F104034FF0000564DB079A0E9381
:1050900022F08002079254EA05027FF4E5ABFFF7A5
:1050A000DCBB079A0E9322F08002079254EA0502B5
:1050B0007FF45CABA2E4079B08F1010843F02003F6
:1050C000079398F80030FEF7F3BE23AA09990A98CF
:1050D00004F0D2F800287FF4CFA80DF1C009259C78
:1050E000FFF70FB940210A9802F056FF099A1060A5
:1050F0001061002800F0F581099A40235361FEF702
:1051000094BE21A81EA9049003911DA8032102901A
:10511000089A3B46CDF804B000910A9801F000FBD4
:105120005D460646119B7419462B7FF4FCAE33781E
:10513000302B00F097811D9D2C44F4E623AA099999
:105140000A9804F099F800287FF496A80DF1C00998
:105150001D9D259C32E50E93FFF785BBBBF1000F2B
:1051600008BF4FF0010BA9E60E931746B8E5089368
:10517000109B2D2707938DF86F704FF0000BFEF7F3
:1051800049BF3046FEF76CFDAB460346FFF7C4BA95
:1051900023AA09990A9804F06FF800287FF46CA8F4
:1051A000259C249B0DF1C009129901330C44072B57
:1051B00025942493C9F80060C9F804107EF7EBAF7A
:1051C000FFF7CBB91D9BDD1C12DB9B4510DB139356
:1051D000CCE62346BAE623AA09990A9804F04CF8CB
:1051E00000287FF449A80DF1C009259CFFF7E0B91C
:1051F000119A023A1192013B9DF84420002B1D9315
:10520000B8BF5B428DF87C20B4BF2D222B22092B26
:105210008DF87D2040F300810DF18B000446B84AE3
:1052200082FB0321DA17C2EBA10101EB8102A3EBA0
:105230004202303209290B4604F8012DEFDC2146E9
:105240003033DAB201F8012D884240F251810DF17C
:105250007E01234601E013F8012B984201F8012B4F
:10526000F9D1431C1B1B0DF17E0213441FAA9B1A8C
:10527000129A1993012A13440D9340F309810D9B4F
:10528000169A134400220D93139223EAE3737BE6EC
:10529000144601330F9A2C44072B2594249389E854
:1052A00024003FF775AF09F108097DE723AA0999A2
:1052B0000A9803F0E1FF00287EF4DEAF0DF1C0098B
:1052C0001D9B259C26E55B46062B28BF06230D93D8
:1052D00023EAE373B346374613960E940893894E38
:1052E000FEF797BE23AA09990A9803F0C5FF002884
:1052F0007EF4C2AF1D9B129A259CD31A0DF1C009F2
:1053000020E50E921F46EBE42D231F468DF86F30EB
:10531000FFF706BB0793FEF763BE0E92FFF7A3BA33
:1053200021A81EA9049003911DA803210290089AA8
:105330003B46CDF804B000910A9801F0F1F95D46C2
:10534000064600EB0B04F2E64FF0060BB6E5169AA4
:10535000129B1344139A0D93002A40F39180672205
:1053600023EAE37311920FE6002B40F39B80BBF11D
:10537000000F6ED1079AD4076BD41A4623EAE37361
:105380000D9201E6119B472B7FF4CCAD079BDB0709
:105390003FF5C8AE219B9B1B12930D9B472B3FF4FF
:1053A00011AF1D9B27E7079B5F46DB0705D540AE86
:1053B000302306F8413DFEF722BECDF834B030AEC2
:1053C000FEF720BE2BEAEB73CDF834B0089383468A
:1053D0000E9413909DF86F70FEF71BBEA04600253B
:1053E000FEF768BD23AA09990A9803F045FF002833
:1053F0007EF442AF0DF1C0091D9D259C249BFFF753
:10540000F4BB219BA2E5169A139B134467220D93CC
:10541000119223EAE373B7E5303330228DF87F3001
:105420008DF87E2020AB21E70799374E21F08001CF
:10543000364B0791119903224FF0000B0892472930
:10544000D8BF1E460D92CDF84CB09DF86F70FEF798
:10545000E0BD139B169A9D1805EB0B030D9323EAF1
:10546000E37391E5089839460022002304F0A6F979
:1054700000287FF460AEC5F101051D952C4452E56E
:10548000139B0D9AC3F101031A4413460D9266E76C
:10549000079B13F001037FF4F2AE13930D9B23EAF5
:1054A000E37371E5BBF1000F02D1079BD80707D565
:1054B000169B5D1C05EB0B030D9323EAE37363E579
:1054C00001230D9360E50E9898F8013005680430CB
:1054D000002D0E90A046BEF6EBAC4FF0FF35FEF768
:1054E000E7BC0A9A0C2313604FF0FF30FEF7CDBEE5
:1054F0000DF17E03BAE68DF86F10FFF729BB00BFF0
:105500006766666648E900001CE9000018E90000CB
:105510008DF86F10FFF70FB98DF86F10FFF7B8BA5D
:105520008DF86F10FFF79FBA8DF86F10FFF774BA00
:105530008DF86F10FFF73EBA8DF86F10FFF710BAB5
:105540008DF86F10FFF732B98DF86F10FFF7B5B90E
:105550008DF86F10FFF768B94B6E2DE9F0479C048A
:1055600092462CD5936812683BB30F46804602F1F1
:10557000080919E96000B60817D0043D002401E0CD
:10558000A64210D03A4655F8041F404602F08EF964
:10559000431C04F10104F3D10023CAF80830CAF80F
:1055A0000430BDE8F087DAF80830A3EB8603CAF8C8
:1055B000083009F10809002BDBD10020ECE702F0EC
:1055C000BDFA0023CAF80830CAF80430BDE8F087F5
:1055D0002DE9F04FABB01C46009190460493059026
:1055E00018B1836B002B00F0DE800098B0F90C102E
:1055F0008AB2950407D4436E41F4005223F4005359
:105600008281436692B2110740F1B180009B1B6911
:10561000002B00F0AC8002F01A020A2A00F0B580DC
:105620000DF1680AD346002302930F930E93CDF831
:1056300034A098F800304446FBB1252B02D11CE081
:10564000252B03D014F8013F002BF9D1C8EB04053A
:105650009DB10E9B0F9A01332A44072BCBF8008093
:10566000CBF804500F920E937BDD002A40F01F858B
:10567000D346029B0E922B4402932378002B00F01A
:105680003B844FF0000300218DF82F3004F1010816
:10569000637808460E460C464FF0FF32019208F13F
:1056A0000108A3F12002582A00F28B83DFE812F0F0
:1056B0003D0389038903450389038903890389031A
:1056C000890389037E006B028903860070028903C7
:1056D000CC015D025D025D025D025D025D025D0264
:1056E0005D025D02890389038903890389038903B4
:1056F0008903890389038903D10189038903890304
:1057000089038903890389038903890389031A02A9
:1057100089038903890389038903E50289038903CE
:10572000080389038903890389038903890389039A
:105730008903890389032B0382038903890389036E
:105740005E038203890389036303890370038D0267
:105750008B00E002890393028903B2028903890363
:105760004A030BF1080B029B2B44029385E7009937
:10577000059800F057FE002840F04585009B9A8967
:1057800002F01A020A2A7FF44BAF0099B1F90E30E9
:10579000002BFFF645AF23464246059800F00CFE6D
:1057A0002BB0BDE8F08F02F019F81EE7049A1346FB
:1057B00014680433002C049302DA644246F00406B1
:1057C00098F800306BE74FF0000304988DF82F3005
:1057D000034630218DF83010019978220029069473
:1057E0008DF83120046803F104034FF0000546F002
:1057F0000202C0F20C8526F0800654EA050246F04B
:105800000206049340F0B584B348019B002B40F09E
:10581000628499465746002301930393019B039AA0
:105820009342B8BF13461D46B9F1000F00D00135B1
:1058300016F00203079318BF023516F0840308938D
:1058400040F0E882069B5C1B002C40F3E382102CA6
:1058500040F33C85DFF88492DDF838E0DC460F9AAF
:10586000C3461023A84670464D46DDF8149007E065
:1058700000F1020E08460CF1080C103C102C13DD50
:10588000411C103207290F92CCF80050CCF804309C
:105890000E91EDDD002A40F0A582103C102C104640
:1058A0004FF0010ED446EBDCA94670464546D8467B
:1058B000E346224407280F92CBF80090CBF804402F
:1058C0000E9000F36D839DF82F300BF1080B00F163
:1058D000010E002B40F0A782079B002B00F0BA823C
:1058E00002320CA90223BEF1070F0F92CDF838E067
:1058F0008BE80A0040F37083002A40F00084089B84
:105900004FF0010E802B1046D34640F0A782069B35
:105910005C1B002C40F3A282102C40F3F884DFF8CB
:10592000C091DE461023C346A8464D46DDF81490CC
:1059300007E000F1020C08460EF1080E103C102C96
:1059400013DD411C103207290F92CEF80050CEF81B
:1059500004300E91EDDD002A40F00C83103C102C39
:105960004FF0010C1046D646EBDCA9464546D8461A
:10597000F3462244BCF1070F0F92CBF80090CBF80E
:105980000440CDF838C000F3C883019B03990BF1A4
:10599000080B5C1A002C0CF1010E604600F36482C7
:1059A0000399BEF1070F0A440F92CBF80070CBF8B1
:1059B0000410CDF838E040F3C582002A40F032836D
:1059C00070070E9238D5069B5C1B002C34DDD34645
:1059D000102C40F39684DFF804910E994F46102660
:1059E000DDF8149006E0881C19460BF1080B103CFA
:1059F000102C13DD4B1C1032072B0F92CBF80070CC
:105A0000CBF804600E93EEDD002A40F08582103C56
:105A1000102C4FF001001146D346EBDCB94622446E
:105A200007280F92CBF80090CBF804400E9040F37B
:105A30009282002A40F00C84029B069AAA42ACBFD4
:105A40009B185B19029390E246F0800698F80030AC
:105A500025E60694002940F0858446F01006B3063A
:105A600040F104830499073121F00701D1E90023B3
:105A700014461D4608310491002A73F10003C0F258
:105A80007C83019B9DF82F90002BC0F20B8354EA7E
:105A9000050326F0800600F0DE80002D08BF0A2CEA
:105AA000C0F0DE805746204629460A22002303F034
:105AB000F5FE303207F8012D2046294600230A2240
:105AC00003F0ECFE04460D4654EA0503EBD1C7EBA8
:105AD0000A030393A2E600BF34E9000064E9000072
:105AE00074E900000694002940F0388446F010065E
:105AF00016F0200300F0A1824FF00002049B8DF805
:105B00002F20073323F0070303F10802D3E90045F0
:105B1000019B0492002B0ADB54EA050326F0800661
