:1000000000400020BD210000B9210000B9210000FE
:10001000B9210000B9210000B92100000000000052
:10002000000000000000000000000000B9210000F6
:10003000B921000000000000B9210000B921000032
:10004000B92100003D170000451700004D170000C2
:10005000551700004D150000E10C0000B10C000028
:10006000B92100009117000099170000E913000062
:10007000F5130000B9210000651E0000150E0000F8
:100080002D0E0000B9210000B92100009D090000DB
:10009000090A0000150A0000210A00002D0A0000CC
:1000A000390A0000450A0000510A00005D0A0000FC
:1000B000690A0000750A0000810A00008D0A00002C
:1000C000990A0000A50A0000B10A0000BD0A00005C
:1000D000B9210000B9210000B9210000290B00005E
:1000E00001140000810C0000210E0000510C0000E2
:1000F000B9210000B9210000B92100000000000072
:1001000000000000000000000000000000000000EF
:1001100000000000000000000000000000000000DF
:10012000C90A0000D50A0000E10A0000ED0A00003B
:10013000F90A0000050B0000110B00001D0B000068
:10018000FFFFFFFFFFFFFFFFFFFFFFFFFFFFFFFF7F
:1001900003329CA77F000000FFFFFFFFFFFFFFFF70
:1001A00010B5054C237833B9044B13B10448AFF3B1
:1001B00000800123237010BD000C0420000000000B
:1001C0001CFF0000084B10B51BB108490848AFF3ED
:1001D00000800848036803B910BD074B002BFBD013
:1001E000BDE81040184700BF00000000040C0420C8
:1001F0001CFF0000F409042000000000154B002B38
:1002000008BF134B9D46A3F5803A00218B460F464D
:100210001348144A121A03F035F90F4B002B00D083
:1002200098470E4B002B00D0984700200021040077
:100230000D000D48002802D00C4807F0FBFA03F02F
:10024000F9F82000290002F035F903F0CFF800BFDB
:100250000000080000400020000000000000000036
:10026000000C04209819042035780000418A000011
:1002700000B585B004AB002043F8100D0C2201A995
:1002800001F0C4F890B90021009801F019F948B9BB
:10029000009801F0FDF810B1064803F089F905B0A7
:1002A0005DF804FB044803F083F9F1E7034803F029
:1002B0007FF9E8E7F0AE0000D8AE0000C4AE000061
:1002C00030B5054685B00B4A0B4C01AB07CA246814
:1002D00003C3210C01A81A708DF80210ADF800407C
:1002E00003F01EF9284603F01BF9684603F018F9DD
:1002F00005B030BD14AF000020AF000000B5084BC2
:1003000083B01B681A0CADF804308DF8062003F09A
:1003100007F901A803F004F903B05DF804FB00BF7E
:1003200020AF0000027D0388002A6AD02DE9F04F3B
:100330000C6985B0002C61D0324C1B0104F50079AA
:100340009944E318029309F10C03D0F80C8003934D
:100350004FF0010C38E04FF00004013A027544758B
:100360000C69029EB4F5806F3DD8651E2D014FF0DB
:10037000000E4F68C3F381620197CF680CFA02F256
:10038000052A3C44019F28BF002204F1FF3A0AFBE2
:1003900002729F0F0CFA07F7052F03F0070B28BF17
:1003A0000027BBF1030F326096BF8A68039A0AFBED
:1003B00007222B437260B360C1F810E0CC60027D6D
:1003C000E2B1BEF1000F19D08B69447D48EA030306
:1003D000002CC0D1013A02750C694E46B4F5806F0D
:1003E00080F815C0C1D923F00703A4F5806E43F649
:1003F000F07543F003034FF48064BAE705B0BDE83D
:10040000F08F70470010042010B528B321B30B689B
:10041000002B28D1EFF3108303B972B6154C226874
:100420000AB9154A136023680268013323600AB9C8
:1004300010E01A461368002BFBD1116023680D4AA7
:10044000013B2360236823B90B4913600B6803B990
:1004500062B610BD0160F1E7084B094A40F2AA619B
:10046000084802F0A5FF084B054A40F2AB61054879
:1004700002F09EFF141404201014042054AF000056
:1004800044AF00007CAF000004B0000010B5F8B12C
:10049000EFF3108202B972B6114B1968A9B119684D
:1004A0000268013119601AB11468002104601160FA
:1004B00019680B48013919601B6823B909490360A1
:1004C0000B6803B962B6104610BD06490A60E6E73C
:1004D000054B064A40F29461054802F069FF00BFEF
:1004E00014140420101404201CB0000038AF0000C5
:1004F0007CAF0000344B2DE9F047B0F800800127B5
:10050000D3F88C3007FA08F818EA030FC2684ED007
:10051000C369002B4BD0037D002B48D002F00709A4
:1005200004462A4E00F11C0A11E0237D022B44D11F
:1005300029462046FFF7F6FE294604F12000FFF782
:1005400063FFE369C6F828808BB3237D8BB3B9F1D1
:10055000030F1FD0236A73BB5046FFF797FF054672
:10056000F0B109F1FF33012B6775A775C6F8348028
:10057000DBD8EA692388D10707FA03F3C6F81438F1
:10058000C6F81C3848BFC6F81038920748BFC6F8EE
:100590001838CAE75046FFF779FF05460028C7D14B
:1005A0000B4B0C4A40F203510B4802F001FFBDE82F
:1005B000F087BDE8F087BDE8F087084B054A40F2B8
:1005C0001351054802F0F4FE000004200000014031
:1005D0002CB0000024AF00007CAF00003CB0000055
:1005E000002851D0016A70B5044600294DD0037D22
:1005F0000568013303754B69B3F5806F1CD9A3F50A
:1006000080634B6100E019460B68002BFBD10B693E
:10061000002B35D12046FFF76DFF236A002B2ED02B
:100620001D4A2188D2F8842001238B4013421B4AA3
:1006300014BF5361536270BD00234B612030FFF73C
:1006400025FF154AADB2D2F88410012303FA05F54F
:100650000D420646826804D183699B0F032B08BFB5
:100660004268636813B10021A0689847314604F1DD
:100670001800FFF7C9FE216A0029C5D1CAE770BD7D
:100680002046FFF74FFEC8E77047054B054A40F28A
:100690006351054802F08CFE000004200000014078
:1006A0005CB000007CB000007CAF00002DE9F04F92
:1006B00080462C4E2C4D706883B040F00100706075
:1006C00028781FFA88F74FF001090C4692460093EC
:1006D00009FA07FB60B364220021204602F0D2FE33
:1006E00021462246D5F8840041F8448B1D4E42F83D
:1006F000241F1BEA000FA261C6F804B818BF02222B
:10070000C6F83CB008BF0122E260D5F8882005EBAE
:10071000870742EA0B03009A002062600C9A7C6013
:10072000A260C5F88830CAF8004003B0BDE8F08F79
:100730000E4B01464FF480621846019302F0A2FE70
:100740004FF6FF72019B0A494FF40020B3603262FA
:10075000F2627263F263B264F264326585F800900B
:100760000860B8E7000001400000042000100420E9
:1007700000E100E02DE9F041054650F8184B0E4627
:10078000FFF784FE002843D0727C337C96F808C0C3
:1007900013F0100F4FEA82714FEA836314BF4FF0DA
:1007A000010E4FF0040E12F0100F03F0406241EA08
:1007B0000C6343EA0203726814BF022708274EEA5B
:1007C0000701376882602A69D6F80C800A434760BF
:1007D0000026194F8361C0F81080C0F81480C161F1
:1007E000C66001462A6105F11C00FFF70DFE4FF0BF
:1007F0000108A4B2D7F88C0008FA04F3034004D02F
:100800002C6A44B13046BDE8F0811846BDE8F0815D
:100810000520BDE8F0812846FFF76CFE2A88D7F84E
:10082000840008FA02F2054B10401ABF20465A61B4
:100830005A62BDE8F08100BF0000042000000140C2
:1008400003682DE9F04101229DB2044602FA05F544
:1008500039B13B4ED6F88C100D4233D00020BDE8A4
:10086000F081384BC269DD621D626AB100F11C077C
:1008700000F118063846FFF709FE01463046FFF73B
:10088000C3FDE369002BF5D1236A6BB104F11807AE
:1008900004F120063046FFF7F9FD01463846FFF720
:1008A000B3FD236A002BF5D125492369D1F88C20AB
:1008B00023F00F0322EA0505C1F88C5023610020C4
:1008C000BDE8F0811F4F29437868C6F88C1040EAD4
:1008D00002017960E168022001F0070103296275D5
:1008E000A27520750DD12269C7F81458D107C7F831
:1008F0001C5848BFC7F81058920744BF114AC2F8A5
:1009000018581B0CDFF83C800F495AB2012703F03E
:100910001F0307FA03F35209C8F83450204641F880
:100920002230FFF7E7FD2288D6F8843097401F4237
:1009300014BFC8F81470C8F824700020BDE8F08116
:10094000000004200000014000E100E070B5114CFF
:1009500003880125D4F88C109D400D4211D1D4F8A4
:10096000882004EB8303002022EA05055860C4F8C0
:10097000885021B9084A536823F0010353600020CE
:1009800070BD06460021FFF75BFF3388D4F88C105A
:10099000E5E700BF00000420000001402DE9F84316
:1009A000174BD3F84C809E6C1F6D56EA070920D078
:1009B000144DD5F8883019EA03091AD004350024FB
:1009C00029FA04F313F0010F26FA04F14FF00002A4
:1009D00004F1010409D02868436833B111F0010F14
:1009E000806814BF012102219847202C05F10405DD
:1009F000E6D1034B9E641F65C3F84C80BDE8F883C5
:100A00000000014000000420014B5868FFF7E8BDDA
:100A100000000420014B9868FFF7E2BD00000420AD
:100A2000014BD868FFF7DCBD00000420014B1869BA
:100A3000FFF7D6BD00000420014B5869FFF7D0BD79
:100A400000000420014B9869FFF7CABD0000042094
:100A5000014BD869FFF7C4BD00000420014B186AA0
:100A6000FFF7BEBD00000420014B586AFFF7B8BD78
:100A700000000420014B986AFFF7B2BD000004207B
:100A8000014BD86AFFF7ACBD00000420014B186B86
:100A9000FFF7A6BD00000420014B586BFFF7A0BD77
:100AA00000000420014B986BFFF79ABD0000042062
:100AB000014BD86BFFF794BD00000420014B186C6C
:100AC000FFF78EBD00000420014B586CFFF788BD76
:100AD00000000420014B986CFFF782BD0000042049
:100AE000014BD86CFFF77CBD00000420014B186D52
:100AF000FFF776BD00000420014B586DFFF770BD75
:100B000000000420014B986DFFF76ABD000004202F
:100B1000014BD86DFFF764BD00000420014B186E37
:100B2000FFF75EBD00000420014B586EFFF758BD73
:100B3000000004204CF61430174B70B51946D860ED
:100B40001A69164C42F0020200251A612560D8602D
:100B50001A6942F002021A610B690F4A9B05FBD524
:100B60004CF614340E480F4B0168402621F0030167
:100B70000160D46011694FF4006021F00801802504
:100B80004FF4007411611E601D605C60586001F0DC
:100B90008BFA002070BD00BF00C104400014042087
:100BA00000C3044000E100E038B504460D4601F002
:100BB0007BFA8CB1012C0DD10A4B5B6803F03F032B
:100BC000094A002B126808BF0123B2FBF3F300208F
:100BD0002B6038BD032038BD024B5B68C3F305238F
:100BE000EEE700BF00C304400814042038B528B362
:100BF000012821D16FF03F02EFF3108000B972B6E7
:100C0000104B1C680CB9104C206018680F4C013058
:100C1000186060680B4D0240114361601A68013A28
:100C20001A601B6823B9084A2B60136803B962B6BF
:100C300001F03AFA002038BD032038BD09026FF4F4
:100C40007C52D9E7141404201014042000C304407B
:100C5000084A094B10B51B68946904F0060423B1D7
:100C600006490022086821049847024A93691C43F8
:100C7000946110BD00C30440001404200414042037
:100C8000084A094B10B51B68946904F4CC4423B19D
:100C900006490022086821049847024A93691C43C8
:100CA000946110BD00C30440001404200414042007
:100CB00008B5084B5968CB070BD5074B1B681BB110
:100CC000064A106800229847024A536843F001031D
:100CD000536008BD00C00440001404200414042024
:100CE00038B50E4D0E4A2B6854684BB162070ED4CE
:100CF000A30705D50B4A2B681068022100229847EC
:100D0000074A04F0060453681C43546038BD054983
:100D10000022086804219847EAE700BF0014042075
:100D200000C004400414042000207047F0B50446BD
:100D3000406883B0038C9BB2ADF806300588BDF8DF
:100D40000670BDF8063007F00F07C7F1080292B22F
:100D5000ADB2C3F3032392B1E26982B1C7F10707D1
:100D6000BFB2013A2169D71B01E042B1013A0E78C6
:100D7000BA420681267EE26131442161F5D1002B21
:100D800043D0226AAAB1626901E091B160688188AA
:100D9000013B11706069216A627E013902449BB295
:100DA00062612162002BF0D119B163681D8003B02C
:100DB000F0BDE369002BF8D12378022B17D0032B69
:100DC0000AD0E36B002BF0D000221146206C98472C
:100DD00063681D8003B0F0BD62680121138A84F846
:100DE000281023F440531B041B0C1382E9E7AB07C4
:100DF000E7D5616801228B8A03F400539BB28B8292
:100E000084F8442084F84520DBE7216A0029CCD10E
:100E1000CFE700BF014B9869FFF788BF940004201B
:100E2000014B586BFFF782BF94000420014B186DF3
:100E3000FFF77CBF9400042070B4066A002380F89A
:100E4000443083B080F84530002E32D032464468BA
:100E5000C36923B9218A89B241F4005121829A429F
:100E600038BF1A4692B22283A3F108054BB101693B
:100E7000013B0A789D422281027EC3610A440261DD
:100E8000F4D18EB90378032B0ED083680D4993F902
:100E90001030012203F01F0082405B09002041F85E
:100EA000232003B070BC7047A3889BB2ADF8063016
:100EB000EBE74468C269218A134689B241F4825142
:100EC0002182C6E700E100E0FEE700BF10B504465E
:100ED000836B044998476268938A9BB243F400533A
:100EE000938210BD05001900F0B5026A83B0044674
:100EF00072B311464068E36953B9058A25F040058D
:100F00002D042D0C0582058AADB245F400550582ED
:100F1000994238BF194625696769013301320126B4
:100F200089B25B085208018384F845606365A26654
:100F3000A56484F844602766E5B104F14801D4F85B
:100F4000D400FFF717FC074658B10D2003B0F0BDE1
:100F5000C16940680B46058AADB245F480550582EB
:100F6000CAE73146D4F8D400FFF76AFC84F844702D
:100F70006769022597B104F15C01D4F83C01FFF7E1
:100F8000F9FB06460028E0D10121D4F83C0145F0E8
:100F90000405FFF755FCADB284F845606268938B99
:100FA0009BB243F001031D43ADB29583138A5B06E8
:100FB00003D493889BB2ADF80630A368064993F931
:100FC0001030012203F01F0082405B09002041F82D
:100FD000232003B0F0BD00BF00E100E0184B10B4C7
:100FE000994222D00CD9174B99421ED003F101131C
:100FF00099420CD0A3F10213994208D010BC70475B
:10100000B1F5A01F11D0A3F103139942F6D14268A4
:101010000024938B012123F004031B041B0C9383F6
:10102000046280F8281010BC704742680021938B3E
:1010300010BC23F002031B041B0C9383C161704797
:101040000400180006001A0010B50446836B054919
:101050009847236A2BB96268938A9BB243F4005382
:10106000938210BD04001800426810B5938B0446AB
:1010700023F007031B041B0CD0F8D4009383FFF765
:1010800065FC08B1052010BDD4F83C01FFF75EFCFB
:101090000028F7D110BD00BF30B50446836883B087
:1010A00000F1D40204F1700158680094134BFFF76B
:1010B000FDFA10B1052003B030BDA268104B906856
:1010C00004F1D80104F59E720094FFF7EFFA0028AE
:1010D000F0D16268012302F1080503210432E564BE
:1010E000E26584F8583084F8503084F86D3084F824
:1010F000643084F8591084F86C10DCE74910000063
:10110000CD0E00000020704738B58368012193F9A7
:1011100010300A4D5A0903F01F0301FA03F320327D
:1011200045F82230036B0446984708B1052038BDC6
:10113000A36820709861187038BD00BF00E100E01E
:101140004268138A31B923F400631B041B0C138219
:10115000002070479BB243F4006313820020704765
:1011600030B50C4683B001A905460020FFF71CFDF1
:101170000199B1EB440F02D8092003B030BDB1FB97
:10118000F4F14908013989B201F03F038B42F3D1F0
:101190006A6800209381F0E7F8B50C460646002502
:1011A0001D60294620461F4602F06CF9264AC6EB10
:1011B000C60602EB8600254AC3682549DFF8A4E08D
:1011C000244EA0608461E2620222A16363606573C1
:1011D000257384F82850E5632564C4F830E066631D
:1011E00020469D841C492270FFF7BAFF002828D1B1
:1011F000EFF3108303B972B618490A680AB9184A9E
:1012000013600B68626801330B60138A02259BB27E
:1012100043F44053138215820B68104D013B0B6061
:101220000B682BB90E492B600B680BB962B662686C
:1012300000239383138A9BB243F0010313823C6023
:10124000F8BD2570F8BD00BF940004200511000012
:10125000C90E0000390E000090D0030014140420C1
:1012600010140420290D00000378022B01D00C205B
:10127000704743688AB2817300201A86704700BFA6
:10128000F8B5036B04460D46984708B10520F8BD34
:10129000257365B90E4A0F480F49104BE26220636F
:1012A0006163A363204690470028EFD1F8BD6168D1
:1012B0000B488B8A0B4F23F007031B040A4E0B4D80
:1012C0001B0CE06227636663A56302468B82E9E735
:1012D00005110000290D0000390E0000C90E0000A4
:1012E0009910000069100000E90E0000DD0F0000F9
:1012F000F0B504468368294D93F9103001205A094E
:1013000003F01F0398402032636845F822001A8AD0
:10131000207B22F441521204120C1A8283B09A8A62
:10132000002834D022F400521204120C9A820A6966
:10133000C8680F684E688D6822764A6927616276B0
:101340001A88206292B2ADF80620BDF806206661C8
:1013500092B2E5611A801A8A616B92B242F002027F
:101360001A822046884780B9637B73B194F8443071
:1013700093B194F84530DBB23BB994F84430002B7C
:10138000FBD094F84530DBB2F6E703B0F0BD92B283
:1013900042F400529A82CAE70346EDE700E100E01A
:1013A00010B5044601234373FFF7A2FF00236373C4
:1013B00010BD00BF70B590E848009D8B5EB1ADB226
:1013C000EA0704460AD4AB0704D563680022022169
:1013D000A0689847236803229A8170BD00220121EA
:1013E0008068B047EFE700BF014BD868FFF7E2BF66
:1013F000E8000420014BD869FFF7DCBFE8000420B7
:10140000014BD86AFFF7D6BFE8000420F8B50C46B8
:101410001E4605460021204602F034F800201949F6
:10142000306051F835304FF0010E1F8BEA00FF0697
:1014300020706060A06084F802E001EB020002D43A
:101440001F89BF0615D505230F4F63704FF0200E7F
:101450000123C7F800E0237030600A4451F83530AA
:101460005460188B10F00E00FBD14CF6CC429A81E0
:10147000F8BDDFF818E042273EF825E0A3F800E0C9
:101480001F81E0E71801042000E100E090B00000B7
:1014900030B404464568012295F9013007485909DE
:1014A00003F01F0302FA03F32031002240F8213039
:1014B0006A701046626030BC704700BF00E100E017
:1014C000026810B4138BDB0603D511B1082010BCE1
:1014D000704743689B7833B9138B03F00E033BB11D
:1014E0000A2010BC7047138B03F00E03002BFAD1B7
:1014F000EFF3108000B972B6124B1C680CB9124C95
:101500002060186801301860A1B1118989B241F0DA
:10151000600111811A680B49013A1A601B6833B9DE
:10152000094A0B60106810B962B610BC7047002001
:1015300010BC7047118921F020010904090C1181A8
:10154000E8E700BF14140420101404200E4B59685F
:101550001A688B7863B9138B03F00E0313B94CF63A
:10156000CC4393814B6873B10022886811461847B9
:10157000138B03F00E03002BF1D0138B03F00E033B
:10158000002BF5D1EBE77047180104202DE9F0415D
:101590001B4FA1F10903DBB2FD68012B82B00E469F
:1015A00005EBC0050DD94E1E0123164A6C6803FADF
:1015B00006F6166114B1A8680022A04702B0BDE883
:1015C000F081002402E00134032CF7D057F82420E6
:1015D000092E0CBF138D938DD5F8048099B2138E0C
:1015E0000B40ADF806301386B8F1000FEBD0002B9E
:1015F000E9D00DF106022146A868C047E3E700BF25
:101600002001042080C004400D49CA680AB10020AE
:1016100070470346C86000F130015A6043F8082F54
:101620008B42FAD10368074A10B401334FF40074B7
:101630004FF48061036014600020116010BC70479B
:101640002001042000E100E0144B30B453F82040A6
:10165000EFF3108000B972B6114B1D680DB9114D32
:1016600028601868013018608AB1A28892B21143CC
:10167000A1801A680A49013A1A601B6823B9094A0D
:101680000B60136803B962B630BC00207047A288B3
:1016900092B222EA0101A180EBE700BF2001042001
:1016A0001414042010140420144B30B453F82040B8
:1016B000EFF3108000B972B6114B1D680DB9114DD2
:1016C00028601868013018608AB1A28992B211436B
:1016D000A1811A680A49013A1A601B6823B9094AAC
:1016E0000B60136803B962B630BC00207047A28952
:1016F00092B222EA0101A181EBE700BF20010420A0
:101700001414042010140420024B53F8203000203D
:101710001983704720010420024B53F82030002029
:101720009983704720010420034B53F82030002098
:101730001B8A1940118070472001042001210020DC
:10174000FFF724BF02210120FFF720BF0321022061
:10175000FFF71CBF38B50C4A0C4BD2685B68D569E3
:1017600003F02003002B0BBF00242024042124219C
:1017700015B1106A0022A847044A136943F0080310
:101780001C43146138BD00BF2001042080C0044008
:1017900009210420FFF7FABE0A210520FFF7F6BE53
:1017A000F8B50D4611466F6CEFF3108252BB72B65E
:1017B000D5F844E0214C26680EB9214E32602668E7
:1017C000DEF8002001369342266022D02668DFF83A
:1017D0006CE0013E2660226822B9194CCEF8002048
:1017E00022688AB1846824B11A46C068A0470023E1
:1017F0003B602B6D2BB995F84C20022A06D085F85A
:101800004C30F8BDBE46D5E762B6EBE785F8582008
:10181000F8BD2A6D00268EF80C60DEF810C08668D0
:10182000013A2A65C5F844C0002ECFD195F884202E
:101830000132D2B285F88420C8E700BF1414042016
:1018400010140420036CF0B41C6814B10620F0BC22
:101850007047EFF31085FDB11E46124C27680FB993
:10186000114F3D60256801273D4425601F732568A1
:101870001960691E2160016D3569246800263944AC
:101880005A609E60074B0564016544B9064A1C60B6
:10189000106820B962B6DAE772B6066CDDE70020A0
:1018A000D5E700BF14140420101404202DE9F041E2
:1018B0008C6C9DF818502668964211D0012D03D0EB
:1018C000BDE8F0410021184744694FF0FF31A28A7A
:1018D0005206F5D40139FAD198470120BDE8F081CC
:1018E000EFF310860EB972B68C6C0E4A17680FB9FA
:1018F0000D4F3E6016680027013616601668276097
:10190000013E1660126881F84C704C640C64054905
:10191000002AD3D1044C0A602268002ACED162B6D4
:10192000CCE700BF141404201014042030B4051DAB
:1019300045648564056400F1180300F15404002235
:1019400043F8142C43F8102C43F80C2C43F8043CB7
:10195000A3F114011433A3420A73F1D1C56330BC5F
:10196000704700BFF8B5446A236D0BB9002955D103
:10197000EFF310830BB972B6446A354D2A680AB981
:10198000344A13602B68064601332B6094F86430A8
:1019900000292DD1002B39D02F4B42694FF0005137
:1019A000C3F88010938823F020031B041B0C938042
:1019B000706A90F8653033B190F884300133DBB24F
:1019C00080F88430706A0024046580F84C40FFF78A
:1019D000ADFF736A83F858402B681D4A013B2B60AA
:1019E0002B688BB91B491360086868B962B6F8BDEB
:1019F000CBB9426993889BB243F001039380736A29
:101A0000012283F85820E7E70020F8BD4269938857
:101A100023F001031B041B0C9380C9E70222184624
:101A200084F85820F8BD276E01230C4A04F1700198
:101A30002046B8470028DAD1074B72694FF00051B1
:101A4000196093889BB243F020039380D7E700BFCF
:101A5000141404201014042000E100E009001D000B
:101A6000F8B5056A2A6D0AB9002948D1EFF3108349
:101A70000BB972B6056A354C22680AB9344A13604C
:101A8000236806460133236095F86430B9B1002B12
:101A90003AD1426993889BB243F002039380336A40
:101AA000012283F858202368284A013B23602368D9
:101AB0001BBB274913600868F8B962B6F8BD002B54
:101AC00032D14269938823F002031B041B0C9380DC
:101AD000306A90F8653033B190F884300133DBB26E
:101AE00080F88430306A0025056580F84C50FFF797
:101AF0001DFF336A83F85850D5E70020F8BD022354
:101B0000104685F85830F8BD2F6E0123114A05F1B3
:101B100070012846B8470028D0D1726993889BB2DB
:101B200043F010039380BAE70B462F6E094A05F184
:101B300070012846B8470028C0D17269938823F005
:101B400010031B041B0C9380C2E700BF1414042075
:101B50001014042008001C002DE9F84F1446074615
:101B60000E46DDF828A000251A4629462046CAF868
:101B700000504FEA8709DFF87C8101F083FC09EB14
:101B8000070308EB8303D96806F0FD02012A6360AE
:101B90006161267004F1300B41D0023E012E68D9FC
:101BA000626949F6C6610323938162691620108534
:101BB00062694FF4165091846269012193856269CC
:101BC0002061A16193856269002313846169444A9D
:101BD0008B87616904204FF480438880CAF80040F5
:101BE0001360EFF3108202B972B63E4B196809B95F
:101BF0003D490A601A684F4401321A601A6808EBBE
:101C00008707013A1A601B683C61364A23B9364996
:101C100013600B6803B962B60020BDE8F88F334A41
:101C2000C4F820B05846C4F88C2084F87C5084F85E
:101C30008850C4F8805084F89450C4F89050D3F879
:101C400004B0FFF773FE2A4B84F8A8509B4504F1BB
:101C5000B801626935D0032384F8B150C4F8A020DC
:101C600084F8B030236A023E012E04F58E7B99661B
:101C700096D862681D4B00259668C4F824B0584673
:101C8000CBF85C308BF84C508BF85850CBF8505058
:101C90008BF86450CBF86050FFF748FE144B8BF87C
:101CA00078509E420BF1880162694FF0030310D017
:101CB000CBF870208BF881508BF88030636A99667E
:101CC0006FE7032384F8B050C4F8A42084F8B1303F
:101CD000C8E7CBF874208BF880508BF88130EDE7A3
:101CE00000E100E014140420101404204518000042
:101CF00008001C00300104202DE9F041046A82B084
:101D000094F84C30022B20D0012506462167E2676B
:101D100084F84C50D4F85C8004F1700320460F46E0
:101D2000C04718B1284602B0BDE8F08129463046C8
:101D3000346AFFF795FE0028F5D1626C137B002B07
:101D4000FCD1F3694BB10D20EDE794F85830022B2C
:101D5000DAD0102002B0BDE8F081012300933A46AA
:101D600021463046014BFFF7A1FDDCE7611A000078
:101D70002DE9F041446A82B094F84C30022B20D017
:101D8000012506466167E26784F84C50D4F85C8010
:101D900004F1700320460F46C04718B1284602B030
:101DA000BDE8F08129463046746AFFF7DBFD002864
:101DB000F5D1626C137B002BFCD1F3694BB10D2084
:101DC000EDE794F85830022BDAD0102002B0BDE8CD
:101DD000F081022300933A4621463046014BFFF73B
:101DE00065FDDCE765190000034600209960DA60B4
:101DF000704700BF10B444690A43A089134320F020
:101E00000F000004000C1843A08110BC0020704794
:101E10002DE9F0416FEA43446FEA54441F460E46F1
:101E200043694FEAC2281985436944EA080482B02D
:101E3000A4B29C849DF82010436908EB070489B282
:101E40000546998506FB04F601A90020FEF7ACFEC5
:101E5000019C0020A401B4FBF6F42C6102B0BDE8A3
:101E6000F08100BF8F4B30B51C6985B06269138962
:101E700003F00E030C2B21D8DFE803F06720452088
:101E800022200720202020202200938A9BB2D906FE
:101E900000F185805A0703F0080140F18A809D0710
:101EA00041F0040101D541F00201A56A002D00F0C6
:101EB000A8800022E06AA8470023E36105B030BD96
:101EC000636A586C138801680029F7D08268DBB216
:101ED0008B54616A4A6C9368506801338342936003
:101EE000ECD3136820462022FFF75AFC636A93F86C
:101EF0005830022BE2D16269938823F001031B045E
:101F00001B0C9380DAE7236A596C0B68002BD5D041
:101F100089685B5C1380216A4A6C9368506801335E
:101F200083429360CAD3136820464022FFF738FCEF
:101F3000236A93F85830022BC0D16269938823F04A
:101F400002031B041B0C9380B8E7B2F84430B2F8CC
:101F500040109BB213F00F0589B216D0C90714D5F3
:101F600013F001032CD11A460121009220460122D0
:101F7000FFF74EFF6268A368032111701BB169026D
:101F80000022E068984762691388B2F8403023F075
:101F900007031B041B0CA2F8403005B030BD616A7A
:101FA0001288486C00255A074FF0100185603FF5F4
:101FB00076AF98073FF577AF00293FF47FAF74E71E
:101FC00003A90020FEF7F0FD6369A069039AB3F846
:101FD000481002FB00F2B3F8443089B2C3F30B138C
:101FE00003EB0133B2FBF3F2B3EBC00F226128D253
:101FF0005B02B3FBF0F30121A3F5006300229BB267
:10200000B3E7A36823B12A46E0689847E56155E73E
:1020100010293FF453AF636AE1611A6D2AB193F856
:1020200084200132D2B283F88420236A1A6D002AF8
:102030003FF444AF93F884200132D2B283F8842075
:102040003CE7B3EB001F07D21A02B2FBF0F3012109
:10205000A3F500630A46D2E74201934207D2DA01B0
:10206000B2FBF0F30121A3F500630222C7E7B3FB43
:10207000F2F2C2F3460292B10021520801F10101CD
:10208000FBD1012202FA01F101FB00F09B01203398
:10209000B3FBF0F389B2A3F500630322AFE7114667
:1020A000EFE700BF300104202B4A136803F003035D
:1020B000022B07D0032B43D0284B29481860294B0B
:1020C000186070472DE9F0411368D2F80C80D5688C
:1020D000D468D068C4F30024C0F3004001F010F9C4
:1020E00000F0D2FD0022204B00F070FC064608F004
:1020F0001F000F4601F004F900F0C6FD02460B4632
:102100003046394600F014FE11A3D3E9002300F055
:102110000FFE0646C5F3C3200F4601F0F1F800F0AC
:10212000B3FD0B4602463946304600F02BFF01F066
:1021300011F80A4BE04018600A4B1860BDE8F081C6
:102140000A4A064B10681860064B1860704700BFBB
:1021500000000000A8CB784100C30440081404200C
:1021600080BA8C010C1404200000F03F18140420E5
:1021700044F659010D4BD9605A6922F003025A61A5
:10218000D9605A6942F001025A61EFF3108372B6C6
:10219000074A08484FF4E02190605162BFF36F8F07
:1021A000BFF34F8F83F31088704700BF00C0044017
:1021B00000ED00E000000000FEE700BF08B50B4A9C
:1021C0000B4B9A420DD2D0430A4918440B4620F0DB
:1021D00003000430084453F8041B834242F8041BF4
:1021E000F9D1FFF7C5FFFEF709F800BF0000042092
:1021F000F809042028FF0000F0B5054683B0042349
:1022000070240DEB03028DF800400F4600241946A0
:10221000684650268DF803508DF801608DF8024015
:102220008DF804408DF805408DF806408DF8074084
:1022300000F0CCFA9DF80730022B02D0012003B049
:10224000F0BD032319462D0A01AA68468DF80050F7
:102250008DF801708DF802408DF804408DF805402E
:102260008DF806408DF8074000F0B0FA9DF8063072
:10227000022BE3D1012301AA684619468DF80040DC
:1022800000F0A4FA2046DAE72DE9F0431F4E8B0850
:10229000A6FB0336F6084FEA8618C6EB0805AD0024
:1022A00083B081464F1B56B104460544FC232046AB
:1022B00019461C44164A00F089FAAC42F6D1D7B947
:1022C00002231946002401AA68468DF800408DF8C3
:1022D000014000F07BFA9DF80530022B03D001206D
:1022E00003B0BDE8F0839DF80400AA3818BF0120B0
:1022F00003B0BDE8F083BBB2C6EB080009EB800079
:102300001946034A00F062FADAE700BF210882208A
:102310001C1404202DE9F84F824689460220102122
:10232000FFF7F2F9012210210220FFF78DF94FF497
:1023300080510020FFF7E8F901224FF4805100207E
:10234000FFF782F900F0E0F910B10120BDE8F88F45
:1023500004464FF48051FFF7D7F90A2000F080F8C7
:1023600020464FF48051FFF7D7F95FEA990741D033
:1023700051460AEB8700FF2551F8042B130C83EA22
:102380001263534083EA12235D408142EDB2F3D1E0
:102390006E2000F065F841F288384FF0000B05E040
:1023A0003443E4B2012C13D1C3451ED0294638462C
:1023B000FFF722FFC4B20BF1010B002CF0D149460C
:1023C0005046FFF761FF06463443E4B2012CEBD0E0
:1023D00000F0CCF80028B8D141F28830C0EB0B00F7
:1023E000B0FA80F04009BDE8F88F00F0BFF8204651
:1023F000BDE8F88FFF25CBE710B5084C1021224629
:102400000020FFF791F923883BB1044A10210020F6
:10241000FFF78AF92388002BF7D110BD821704201B
:1024200008B520210020FFF777F920210020FFF7D1
:102430006BF90A2000F014F8BDE8084020210020C4
:10244000FFF76AB910B50446002000F07BF8FFF7EB
:10245000E7FFFFF7D1FF204600F0A2F9002010BDF2
:1024600038B1002240F64853013BFDD1013282428F
:10247000F8D1704708B500F097FAFDF7F9FEFEF7BE
:1024800059FB08B1012008BD01210846FEF7AEFB4B
:102490000028F7D10121FEF7A9FB0028F2D1342151
:1024A0000348FFF7B1F8003018BF012008BD00BF96
:1024B0001815042000B5ADF2044DFFF7DBFF012233
:1024C00010464FF48051FFF7BFF84FF480510120C0
:1024D000FFF71AF944F614210A48FFF71BFF00F032
:1024E00067F800F0ADF9684600F0DEF96846FFF7DE
:1024F000A9FF0A2240F64853013BFDD1013AF9D128
:10250000F1E700BF94B00000202908B50AD04029A7
:1025100010D1094B00211868FFF7A2FA074B0122DE
:102520001A7008BD044B00211868FFF71BFA044B12
:1025300001221A7008BD00BF9019042068150420FC
:10254000B016042010B5044650B1012806D14FF44E
:1025500080510020FFF7D8F8002010BD012010BDE9
:102560004FF48051FFF7D8F8204610BD084B10B546
:102570001868FEF7C9FD074B187008B1012010BD9F
:10258000044610210220FFF7BFF8204610BD00BF0F
:10259000641504208517042008B510210220FFF7D8
:1025A000B3F8BDE8084010210220FFF7B5B800BF1E
:1025B0002DE9F041494E82B04FF402730096484A2B
:1025C00003210020FFF7C8FA464D287090BB024651
:1025D0000146044603233068FFF70CFC8046287050
:1025E000002866D10222306800921F230721FFF7DE
:1025F0000FFC07462870002846D132683A49104639
:10260000FFF7F2FB2C7854BB012210212046FFF784
:102610004BF8012220212046FFF716F801224FF443
:1026200080512046FFF710F8FFF7B6FF204602B0B2
:10263000BDE8F08140232D4A2D492E4801F00CF8C9
:102640002C48FDF73DFE2B782B4A2C49294801F0F8
:1026500003F82848FDF752FE002000F0C7FE532380
:10266000224A2349234800F0F7FF2248FDF728FEBD
:102670002B78234A21491F4800F0EEFF1D48FDF743
:102680003DFE384600F0B2FE4F23184A184919485B
:1026900000F0E2FF1748FDF713FE2B78194A17499F
:1026A000144800F0D9FF1348FDF728FE404600F01B
:1026B0009DFE47230D4A0E490E4800F0CDFF0D4800
:1026C000FDF7FEFD2B780F4A0C490A4800F0C4FFC5
:1026D0000848FDF713FE204600F088FE90190420FC
:1026E000881704208417042009250000A8FA000098
:1026F000C0FA0000EC160420F8FA0000D8FA000036
:1027000020FB00000CFB000038B5174D4FF4A272FF
:102710002B4616490020FEF73FFD154C207008B1EE
:10272000012038BD13492868FEF71AFD20700028E3
:10273000F6D101212868FEF797FD20700028EFD11F
:1027400001212868FEF7FCFC20700028E8D1014632
:102750002868FEF795FD054620700028E0D1FFF7B8
:102760001BFF284638BD00BF641504206C150420EB
:1027700085170420E093040038B504460D46022076
:102780001021FEF7C1FF054B2A4621461868FFF7C6
:10279000EFFAFFF701FF002038BD00BF90190420B9
:1027A00010B5044610210220FEF7AEFF204600F0CF
:1027B00079FF054B024621461868FFF79DFAFFF79F
:1027C000EBFE002010BD00BF901904202DE9F84356
:1027D000184D064689460220102117469846FEF7F6
:1027E00093FF28680121FEF74BFD134C207010B1B8
:1027F0000120BDE8F883114B012219462868C3F86F
:102800000890C3F80C8083E8C0001A615A61FEF793
:10281000C7FD20700028EBD101462868FEF730FD87
:10282000054620700028E3D1FFF7B6FE2846BDE834
:10283000F88300BF64150420851704204C1504207C
:1028400010B50023ADF5816D19464FF47F7203A8D2
:10285000029300F017FE012300930F4A0F4B4FF431
:10286000806102A800F0ACFE02A800F01BFF02ABE2
:102870001C1800F1080103232046094A00F0A0FEBD
:10288000084B02A81A889B782281A37200F07CF87A
:10289000C0B20DF5816D10BDDCFB0000D0FB000067
:1028A000ECFB0000F4FB000000B54023ADF20C4D42
:1028B000094A00934FF48061084B02A800F080FEA3
:1028C00002A800F061F802A8272100F009F80DF233
:1028D0000C4D5DF804FB00BFF8FB0000D0FB0000CE
:1028E000FFF74ABF2DE9F04101F1FF38B8F1000FC1
:1028F00014DD002704463D4603E001270135454528
:102900000CD020460121FFF737FF237801340A2B32
:10291000F3D1002FF2D0681CBDE8F0810020BDE8A3
:10292000F08100BFF0B50746ADF20C4D02AD4FF49B
:1029300080612846FFF7D6FFC0B20028F7D00024F8
:1029400023460DF1070205E0002C08BF14460133B1
:10295000834215D012F8011F0A29F5D1002CF6D0B8
:10296000002601A90A222046EE5400F05DFF019BDB
:10297000A3421ABF3860304601200DF20C4DF0BD65
:10298000002CD4D0ECE700BF10B5044682B0012083
:10299000FFF7D8FD2046FFF703FF01A8FFF7C2FFAE
:1029A000019802B010BD00BF00F000B8024B034A0E
:1029B00000201A60704700BF000002405500500020
:1029C00081F0004102E000BF83F0004330B54FEAE0
:1029D00041044FEA430594EA050F08BF90EA020F4D
:1029E0001FBF54EA000C55EA020C7FEA645C7FEAE0
:1029F000655C00F0E2804FEA5454D4EB5555B8BF03
:102A00006D420CDD2C4480EA020281EA030382EA73
:102A1000000083EA010180EA020281EA0303362D05
:102A200088BF30BD11F0004F4FEA01314FF4801CD8
:102A30004CEA113102D0404261EB410113F0004FEA
:102A40004FEA03334CEA133302D0524263EB4303A1
:102A500094EA050F00F0A780A4F10104D5F1200E3F
:102A60000DDB02FA0EFC22FA05F2801841F100019A
:102A700003FA0EF2801843FA05F359410EE0A5F16E
:102A800020050EF1200E012A03FA0EFC28BF4CF09F
:102A9000020C43FA05F3C01851EBE37101F0004555
:102AA00007D54FF0000EDCF1000C7EEB00006EEB62
:102AB0000101B1F5801F1BD3B1F5001F0CD34908EC
:102AC0005FEA30004FEA3C0C04F101044FEA445243
:102AD00012F5800F80F09A80BCF1004F08BF5FEACA
:102AE000500C50F1000041EB045141EA050130BDAA
:102AF0005FEA4C0C404141EB010111F4801FA4F14D
:102B00000104E9D191F0000F04BF01460020B1FAA1
:102B100081F308BF2033A3F10B03B3F120020CDAD9
:102B20000C3208DD02F1140CC2F10C0201FA0CF0B7
:102B300021FA02F10CE002F11402D8BFC2F1200C1C
:102B400001FA02F120FA0CFCDCBF41EA0C019040D2
:102B5000E41AA2BF01EB0451294330BD6FEA04041B
:102B60001F3C1CDA0C340EDC04F11404C4F1200206
:102B700020FA04F001FA02F340EA030021FA04F318
:102B800045EA030130BDC4F10C04C4F1200220FA6F
:102B900002F001FA04F340EA0300294630BD21FAAD
:102BA00004F0294630BD94F0000F83F4801306BF73
:102BB00081F480110134013D4EE77FEA645C18BF67
:102BC0007FEA655C29D094EA050F08BF90EA020FFE
:102BD00005D054EA000C04BF1946104630BD91EAF6
:102BE000030F1EBF0021002030BD5FEA545C05D1F9
:102BF0004000494128BF41F0004130BD14F5800438
:102C00003CBF01F5801130BD01F0004545F0FE41AB
:102C100041F470014FF0000030BD7FEA645C1ABFE0
:102C2000194610467FEA655C1CBF0B46024650EA17
:102C3000013406BF52EA033591EA030F41F4002143
:102C400030BD00BF90F0000F04BF0021704730B5C9
:102C50004FF4806404F132044FF000054FF000019E
:102C600050E700BF90F0000F04BF0021704730B55F
:102C70004FF4806404F1320410F0004548BF404234
:102C80004FF000013EE700BF42004FEAE2014FEA89
:102C900031014FEA02701FBF12F07F4393F07F4F64
:102CA00081F06051704792F0000F14BF93F07F4F96
:102CB000704730B54FF4607401F0004521F00041D9
:102CC00020E700BF50EA010208BF704730B54FF05F
:102CD00000050AE050EA010208BF704730B511F064
:102CE000004502D5404261EB41014FF4806404F19C
:102CF00032045FEA915C3FF4DCAE4FF003025FEA1E
:102D0000DC0C18BF03325FEADC0C18BF033202EBA5
:102D1000DC02C2F1200300FA03FC20FA02F001FAFF
:102D200003FE40EA0E0021FA02F11444C1E600BF9E
:102D300070B54FF0FF0C4CF4E06C1CEA11541DBF51
:102D40001CEA135594EA0C0F95EA0C0F00F0DEF81C
:102D50002C4481EA030621EA4C5123EA4C5350EA01
:102D6000013518BF52EA033541F4801143F4801352
:102D700038D0A0FB02CE4FF00005E1FB02E506F0E3
:102D80000042E0FB03E54FF00006E1FB03569CF038
:102D9000000F18BF4EF0010EA4F1FF04B6F5007F3E
:102DA00064F5407404D25FEA4E0E6D4146EB0606B0
:102DB00042EAC62141EA55514FEAC52040EA5E5039
:102DC0004FEACE2EB4F1FD0C88BFBCF5E06F1ED8E3
:102DD000BEF1004F08BF5FEA500E50F1000041EB1A
:102DE000045170BD06F0004646EA010140EA0200C7
:102DF00081EA0301B4EB5C04C2BFD4EB0C0541EAE9
:102E0000045170BD41F480114FF0000E013C00F3FD
:102E1000AB8014F1360FDEBF002001F0004170BD21
:102E2000C4F10004203C35DA0C341BDC04F114043A
:102E3000C4F1200500FA05F320FA04F001FA05F2C6
:102E400040EA020001F0004221F0004110EBD37093
:102E500021FA04F642EB06015EEA430E08BF20EABF
:102E6000D37070BDC4F10C04C4F1200500FA04F362
:102E700020FA05F001FA04F240EA020001F00041F4
:102E800010EBD37041F100015EEA430E08BF20EA67
:102E9000D37070BDC4F1200500FA05F24EEA020EAF
:102EA00020FA04F301FA05F243EA020321FA04F0DE
:102EB00001F0004121FA04F220EA020000EBD37095
:102EC0005EEA430E08BF20EAD37070BD94F0000F95
:102ED0000FD101F00046400041EB010111F4801FC9
:102EE00008BF013CF7D041EA060195F0000F18BF7A
:102EF000704703F00046520043EB030313F4801FB6
:102F000008BF013DF7D043EA0603704794EA0C0F6F
:102F10000CEA135518BF95EA0C0F0CD050EA410685
:102F200018BF52EA4306D1D181EA030101F0004102
:102F30004FF0000070BD50EA410606BF104619462A
:102F400052EA430619D094EA0C0F02D150EA013636
:102F500013D195EA0C0F05D152EA03361CBF104677
:102F600019460AD181EA030101F0004141F0FE4116
:102F700041F470014FF0000070BD41F0FE4141F49A
:102F8000780170BD70B54FF0FF0C4CF4E06C1CEA9A
:102F900011541DBF1CEA135594EA0C0F95EA0C0F4F
:102FA00000F0A7F8A4EB050481EA030E52EA03350A
:102FB0004FEA013100F088804FEA03334FF080552B
:102FC00045EA131343EA12634FEA022245EA111558
:102FD00045EA10654FEA00260EF000419D4208BF09
:102FE000964244F1FD0404F5407402D25B084FEAB6
:102FF0003202B61A65EB03055B084FEA32024FF462
:1030000080104FF4002CB6EB020E75EB030E22BFBE
:10301000B61A754640EA0C005B084FEA3202B6EB7E
:10302000020E75EB030E22BFB61A754640EA5C002D
:103030005B084FEA3202B6EB020E75EB030E22BFBD
:10304000B61A754640EA9C005B084FEA3202B6EBBE
:10305000020E75EB030E22BFB61A754640EADC007D
:1030600055EA060E18D04FEA051545EA16754FEADF
:1030700006164FEAC30343EA52734FEAC2025FEAFD
:103080001C1CC0D111F4801F0BD141EA00014FF08C
:1030900000004FF0004CB6E711F4801F04BF01435D
:1030A0000020B4F1FD0C88BFBCF5E06F3FF6AFAE79
:1030B000B5EB030C04BFB6EB020C5FEA500C50F109
:1030C000000041EB045170BD0EF0004E4EEA11318C
:1030D00014EB5C04C2BFD4EB0C0541EA045170BD93
:1030E00041F480114FF0000E013C90E645EA060ED7
:1030F0008DE60CEA135594EA0C0F08BF95EA0C0F05
:103100003FF43BAF94EA0C0F0AD150EA01347FF44C
:1031100034AF95EA0C0F7FF425AF104619462CE723
:1031200095EA0C0F06D152EA03353FF4FDAE104686
:10313000194622E750EA410618BF52EA43067FF4D7
:10314000C5AE50EA41047FF40DAF52EA43057FF467
:10315000EBAE12E74A0011D212F5001211D20DD5D2
:103160006FF47873B3EB62520ED44FEAC12343F08D
:10317000004343EA505323FA02F070474FF0000037
:10318000704750EA013002D14FF0FF3070474FF0E6
:103190000000704780F0004002E000BF81F0004175
:1031A00042001FBF5FEA410392EA030F7FEA226CED
:1031B0007FEA236C6AD04FEA1262D2EB1363C1BF7D
:1031C000D218414048404140B8BF5B42192B88BFEC
:1031D000704710F0004F40F4000020F07F4018BF0F
:1031E000404211F0004F41F4000121F07F4118BF2F
:1031F000494292EA030F3FD0A2F1010241FA03FCD7
:1032000010EB0C00C3F1200301FA03F100F00043BE
:1032100002D5494260EB4000B0F5000F13D3B0F186
:10322000807F06D340084FEA310102F10102FE2AF5
:1032300051D2B1F1004F40EBC25008BF20F0010065
:1032400040EA03007047490040EB000010F4000F13
:10325000A2F10102EDD1B0FA80FCACF1080CB2EBA6
:103260000C0200FA0CF0AABF00EBC2505242184305
:10327000BCBFD0401843704792F0000F81F40001AA
:1032800006BF80F400000132013BB5E74FEA41037D
:103290007FEA226C18BF7FEA236C21D092EA030FE9
:1032A00004D092F0000F08BF0846704790EA010F63
:1032B0001CBF0020704712F07F4F04D1400028BF90
:1032C00040F00040704712F100723CBF00F5000072
:1032D000704700F0004343F0FE4040F400007047A8
:1032E0007FEA226216BF08467FEA23630146420254
:1032F00006BF5FEA412390EA010F40F48000704767
:103300004FF0000304E000BF10F0004348BF40420C
:103310005FEA000C08BF704743F0964301464FF048
:1033200000001CE050EA010208BF70474FF00003A4
:103330000AE000BF50EA010208BF704711F00043E5
:1033400002D5404261EB41015FEA010C02BF8446B5
:103350000146002043F0B64308BFA3F18053A3F514
:103360000003BCFA8CF2083AA3EBC25310DB01FA5B
:1033700002FC634400FA02FCC2F12002BCF1004FDF
:1033800020FA02F243EB020008BF20F00100704770
:1033900002F1200201FA02FCC2F1200250EA4C00C4
:1033A00021FA02F243EB020008BF20EADC7070470A
:1033B00000B50A4C0546206885B01C46C06852B16D
:1033C000074B8DE80A0002922B462246054900F081
:1033D0001DF804F027FA044B1A46F2E770050420A2
:1033E0000CFC00001CFC000008FC000008B50021DB
:1033F000044604F0ABF9044B1868C36B03B198475B
:10340000204607F051FD00BF50FC00000EB430B55F
:1034100082B005AC54F8042B054D014623462868BC
:10342000019401F001FE02B0BDE8304003B07047E6
:103430007005042070B50F4E0F4D761BB61018BFE7
:10344000002405D0013455F8043B9847A642F9D131
:103450000A4E0B4D07F02AFD761BB61018BF00244C
:1034600006D0013455F8043B9847A642F9D170BD07
:1034700070BD00BFE8090420E8090420F009042019
:10348000E809042070B4840746D0541E002A41D0B5
:10349000CDB2034602E0621EE4B3144603F8015BBA
:1034A0009A07F8D1032C2ED9CDB245EA05250F2C69
:1034B00045EA054519D9264603F11002103E0F2EA4
:1034C00042F8105C42F80C5C42F8085C42F8045C7C
:1034D00002F11002F2D8A4F1100222F00F0204F05F
:1034E0000F041032032C13440DD91E462246043A11
:1034F000032A46F8045BFAD8221F22F003020432A2
:10350000134404F003042CB1C9B21C4403F8011B9A
:10351000A342FBD170BC704714460346C2E700BF0C
:103520000FB410B5074B82B004AC54F8042B1868E4
:1035300023468168019402F0A1FC02B0BDE810406E
:1035400004B0704770050420F0B5054689B0084600
:103550000C4600F0A7F8431C144F0393AB6B0126F5
:1035600004A9022204940590AC680697079601917D
:103570000292B3B1B4F90C309A0406D4626E43F4EB
:10358000005322F40052A38162662146284601AA14
:1035900005F0FCFB002814BF4FF0FF300A2009B0F3
:1035A000F0BD284605F042FAE4E700BF54FC0000F5
:1035B000024B01461868FFF7C7BF00BF7005042023
:1035C0000CB4F0B5234B00299DB01D683CDB4FF4D3
:1035D00002730C4602900690ADF814304FF6FF7758
:1035E00023AE15D04C1E229A334602A928460494D5
:1035F0000794ADF81670019600F022F9421C19DB11
:10360000029B00221A701DB0BDE8F04002B0704766
:103610003346229A02A9284604940794ADF81670FE
:10362000019600F00DF9431C07DB1DB0BDE8F0402A
:1036300002B070478B232B60E2E78B232B601DB019
:10364000BDE8F04002B070478B232B604FF0FF3095
:10365000EBE700BF700504200EB40146F0B54FF64D
:10366000FF779CB021AC54F8042B0D4823466FF033
:103670000045029106914FF4027602A90068019478
:10368000ADF81670ADF814600495079500F0D8F801
:10369000029B00221A701CB0BDE8F04003B07047D6
:1036A0007005042020F0030110F00300C0F10000B9
:1036B00051F8043B00F1040C4FEACC0C6FF000020F
:1036C0001CBF22FA0CF213434FF0010C4CEA0C2CF5
:1036D0004CEA0C4CA3EB0C0222EA030212EACC12D5
:1036E00004BF51F8043B0430F4D0C2F1000102EAF7
:1036F0000102B2FA82F2C2F11F0200EBD20070475F
:103700002DE9F04F474C83460E46D4F800E000E028
:103710002646344614F8015B0EEB0500407800F0B5
:10372000080000F0FF080028F2D12D2D5CD02B2DD1
:1037300004BF7578B41C002B3ED0102B60D09A4685
:10374000B8F1000F0CBF6FF000404FF00040B0FB2D
:10375000FAF90027BC460AFB19000CE0303DAB42E9
:1037600019DD7E1C05D0CC4523D820D00AFB0C5C8B
:10377000012714F8015B0EEB0506767816F0040FAE
:10378000ECD116F0030606D0012E14BF57263726BB
:10379000AD1BAB42E5DC7B1C16D0B8F1000F10D19D
:1037A0006046002A39D0DFB91160BDE8F08F85424C
:1037B000DCDD4FF0FF37DCE7302D1AD00A239A46C4
:1037C000BEE7CCF1000CEBE7B8F1000F4FF022039D
:1037D0000CBF6FF000404FF00040CBF80030F2B16A
:1037E000611E1160BDE8F08FB41C75784FF00108C0
:1037F000A1E7237803F0DF03582B08D008239EE7C6
:10380000302D9CD1207800F0DF00582897D14FF060
:10381000100A65785346023492E7BDE8F08FBDE8A0
:10382000F08F00BF7405042010B4044C13460A4600
:103830000146206810BCFFF763BF00BF700504207D
:103840002DE9F04FC1B00C46099115460E930A9030
:1038500005F052FC036818461793FFF723FFA3896E
:1038600016901E0603D52369002B01F05D8100230D
:103870001A46A8460DF1C009DFF860A41293199307
:103880000B9325932493CDF88C901492159298F86D
:1038900000304446EBB1252B02D11AE0252B03D092
:1038A00014F8013F002BF9D1C8EB04058DB1249B1E
:1038B000259A01332A44072BC9F80080C9F804501F
:1038C0002592249300F3328309F108090B9B2B44C2
:1038D0000B932378002B00F0EA814FF0FF3B5D460D
:1038E00000231A468DF86F3019460C9307936378BE
:1038F00004F1010808F10108A3F12000582800F2A2
:103900004586DFE810F0F30343064306FC03430655
:103910004306430643064306430659000404430690
:103920006600D0034306EC03BC05BC05BC05BC0522
:10393000BC05BC05BC05BC05BC05430643064306E7
:103940004306430643064306430643064306E20591
:10395000F7044306F70443064306430643064205BD
:10396000430643064A054306430643064306430609
:10397000740543064306CD05430643064306430646
:103980004306430643064306430643061D060E064A
:10399000F704F704F70415060E0643064306A304CE
:1039A0004306A805AE046D000A044306120443064C
:1039B00035044306430670040E9C236818460C9396
:1039C0002346002803F104030E9306DA0C9B5B42A6
:1039D0000C93079B43F00403079398F8003089E7A2
:1039E000AB460E9A0027079830217823BB45146810
:1039F0008DF8701002F104024FF000058DF871305F
:103A00008DF86F7040F00201C0F23D8620F0800119
:103A100041F00201079154EA05010E921193AD485D
:103A200000F0318130AE230943EA0573290904F01F
:103A30000F020D461C46835C06F8013D54EA05035F
:103A4000F1D130AB9B1B0D930D9B5B45B8BF5B4623
:103A500008930023139317B1089B01330893079B26
:103A600013F002030F9302D0089B02330893079BC5
:103A700013F08403109340F018810C9B089A9D1A50
:103A8000002D40F31281102D2599249A924F27DDA5
:103A9000189648461024B946099E2F460A9D04E010
:103AA000103F102F00F1080016DD01328A4B103153
:103AB000072A2591249280E81800F1DD23AA3146D7
:103AC000284606F001FD002840F0F880103F102F36
:103AD00030A82599249AE8DC3D464F468146189E39
:103AE00001326C18072A25942492C9F80070C9F88D
:103AF000045000F3D0809DF86F7009F1080977B188
:103B0000249B013401330DF16F010122072B259411
:103B1000249389E8060000F3208209F108090F9B2D
:103B20006BB1249B023401331CA90222072B25947C
:103B3000249389E8060000F31C8209F10809109B10
:103B4000802B00F02C810D9BC3EB0B07002F33DD86
:103B5000624A102F249B0F9222DD22464FF0100B59
:103B60000A9D099C04E0103F102F09F1080916DD99
:103B700001331032072B2592249389E8000CF2DDE3
:103B800023AA2146284606F09FFC002840F0968094
:103B9000103F102F0DF1C009259A249BE8DC144634
:103BA00001330F9A3C44072B2594249389E8840021
:103BB00000F3C78109F10809079BDA0500F190803D
:103BC000249B0D9901330C44072B2594C9F8006000
:103BD000C9F80410249300F3E28109F10809079B56
:103BE000590736D50C9B089A9D1A002D31DD102DF2
:103BF000249B394F22DD22461026DDF828B0099C8F
:103C000004E0103D102D09F1080916DD0133324999
:103C10001032072B2592249389E84200F1DD23AA74
:103C20002146584606F050FC002847D1103D102D83
:103C30000DF1C009259A249BE8DC144601332C447D
:103C4000072B25942493C9F80070C9F8045000F399
:103C500092840B9B0C9A08998A42ACBF9B185B1804
:103C60000B93002C40F05981002324930DF1C009DF
:103C70000DE60027BB458DF86F70C0F20E85079BDF
:103C800023F080030793BBF1000F00F06C84002445
:103C900000250027C6E623AA09990A9806F014FC15
:103CA00060B99DF86F700DF1C009259C27E7259B31
:103CB00023B10A9823AA099906F006FC099B9B895F
:103CC00013F0400F0B9B18BF4FF0FF33184641B065
:103CD000BDE8F08F8CFC000058FC0000ACFC00003C
:103CE000119B652B40F39F801498159900220023A7
:103CF00006F08CFE002800F06381249BAE4901335E
:103D000001340122072B2594249389E8060000F34F
:103D1000538409F108091D9B129A934203DB079B08
:103D2000DB077FF55CAF249B16990133179A0C448F
:103D3000072B2594C9F80020C9F80410249300F338
:103D4000E68609F10809129B5D1E002D7FF747AF3B
:103D50009A4A102D249B0F9240F3178110260A9F38
:103D6000DDF824B005E009F10809103D102D40F3FD
:103D70000C8101331034072B25942493C9F800A03B
:103D8000C9F80460EFDD23AA5946384606F09CFBCB
:103D9000002893D10DF1C009259C249BE5E70C9BDD
:103DA000089A9F1A002F7FF7CEAE844A102F249BCB
:103DB0000F922BDD4A462146B946102537460A9C0C
:103DC000099E06E0A9F11009B9F1100F02F10802ED
:103DD00018DD01331031072B25912493C2F800A080
:103DE0005560EFDD23AA3146204606F06DFB002822
:103DF0007FF464AFA9F11009B9F1100F30AA259929
:103E0000249BE6DC3E460C464F46914601330F9A12
:103E10003C44072B2594249389E8840000F32B85E8
:103E200009F108098FE6129B249D012B04F101047E
:103E300005F1010540F3E8840123072D2594C9F815
:103E400000602495C9F8043000F3F98409F10809E9
:103E5000169A0135179B1444072D25942495C9F80B
:103E60000030C9F8042000F3F88409F108090023A0
:103E700014981599002206F0C9FD129B002800F045
:103E8000EA805E1E002E40F3F5804C4B102E0F93FF
:103E90002CDDCDF834801027B046DDF828B0099E1F
:103EA00006E0A8F11008B8F1100F09F108091ADDB1
:103EB00001351034072D25942495C9F800A0C9F8C0
:103EC0000470EEDD23AA3146584606F0FDFA0028BC
:103ED0007FF4F4AEA8F11008B8F1100F0DF1C0098D
:103EE000259C249DE4DC4646DDF8348001350F9B9B
:103EF0003444072D2594249589E8480040F3B88080
:103F000023AA09990A9806F0DFFA00287FF4D6AEB2
:103F1000259C249D0DF1C009ACE023AA09990A98BB
:103F200006F0D2FA00283FF49FAEC7E623AA09990B
:103F30000A9806F0C9FA00287FF4C0AE0DF1C00956
:103F4000C4E423AA09990A9806F0BEFA00287FF46F
:103F5000B5AE0DF1C009259C2EE623AA09990A9851
:103F600006F0B2FA00287FF4A9AE0DF1C009259C35
:103F7000D5E523AA09990A9806F0A6FA00287FF445
:103F80009DAE0DF1C009259CD9E501330F9A2C4453
:103F9000072B2594249389E824007FF71EAE23AADB
:103FA00009990A9806F090FA00287FF487AE259CBC
:103FB0000DF1C00913E600BFA8FC0000ACFC000036
:103FC0001D9D002D40F30E83139B129A9342A8BFB0
:103FD0001346002B1D460DDD249B2C440133072B7B
:103FE0002594C9F80060C9F80450249300F315869D
:103FF00009F10809139B002DA8BF5B1B002B1D4670
:1040000040F3A083B94A102D249B0F9240F34585BD
:1040100022461027DDF828B0099C05E009F10809BF
:10402000103D102D40F3388501331032072B2592B7
:104030002493C9F800A0C9F80470EFDD23AA214633
:10404000584606F041FA00287FF438AE0DF1C00959
:10405000259A249BE4E7013B013501361C44072DDA
:10406000C9F8006024952594C9F804303FF748AF9B
:1040700009F10809199A013514441FAB072D25943D
:104080002495C9F80420C9F800307FF7A6AD23AA0B
:1040900009990A9806F018FA00287FF40FAE0DF17E
:1040A000C009259C9BE598F8003008F101042A2BF3
:1040B00000F02B87A3F13000092898BF002500F2FB
:1040C000AF8614F8013B05EB850500EB4505A3F130
:1040D00030000928F5D945EAE575A0460CE4079BB0
:1040E00043F08003079398F8003003E498F8003019
:1040F00000297FF4FFAB01222021FFF7FBBB079BC8
:1041000043F00103079398F80030FFF7F3BB98F8EA
:10411000003001222B21FFF7EDBB079B43F020036A
:10412000079398F80030FFF7E5BB0E9AAB46166888
:10413000002511938DF86F50141D002E00F0E585B9
:10414000BBF1000FC0F23F855A462946304605F0C4
:10415000F7FA002800F05886AB46831B0D9323EA3C
:10416000E3730E940893CDF84CB09DF86F7072E431
:104170001193AB46002A40F0ED86079A12F0200317
:1041800000F043810E9C0027073424F0070303F15D
:104190000801BB450E91D3E900458DF86F70C0F260
:1041A000C18222F08003079354EA050300F048819E
:1041B000002D08BF0A2CC0F0488130AE20462946A9
:1041C0000A22002306F092FC303206F8012D204628
:1041D000294600230A2206F089FC04460D4654EACB
:1041E0000503EBD12DE41193AB46002A40F0CA86BB
:1041F000079B3F489D0640F15D810E9C073424F0EB
:10420000070303F108020E92D3E90045079A12F062
:10421000010700F0468254EA05033FF42AAD9DF8F9
:10422000442000278DF87120079A3023BB458DF874
:1042300070308DF86F7042F00203C0F28D8522F06D
:10424000800343F002030793FFF7ECBB98F80030BC
:104250006C2B00F05284079840F010000790FFF795
:1042600049BB1193AB46002A40F09486079A12F09E
:10427000200300F0A0800E9C0027073424F00703E1
:1042800003F10801BB450E91D3E900458DF86F702D
:104290000BDB22F08003079354EA050306D1BBF140
:1042A000000F00F0A28500240025002730AEE208B0
:1042B00042EA4572E90804F007030D46144630331C
:1042C00054EA050206F8013DF1D1079AD1077FF5BE
:1042D000B8AB302B3FF4B5AB3022731E06F8012C7F
:1042E00030AAD21A0D921E46FFF7AEBBACFC0000FE
:1042F0008CFC00001193AB46002A40F04786079BD8
:104300000E9C1A0704F1070440F16C8324F00703A4
:1043100003F108020E921A685B6814921593159BBC
:10432000149D23F00044284621464FF0FF32A94B4C
:1043300006F09EFB002840F0CD82284621464FF033
:10434000FF32A44B06F076FB002840F0C38214989D
:1043500015990022002306F063FB002840F0F68444
:104360009DF86F7007999C4E21F080019B4B07913F
:10437000119903224FF0000B08924729D8BF1E461F
:104380000D92CDF84CB0FFF766BB079B43F00803D6
:10439000079398F80030FFF7ADBA1193AB46002AA7
:1043A00040F0EC85079B43F010030793079A12F047
:1043B00020037FF460AF079911F0100200F06882CB
:1043C0000E98BBF1000F024604688DF86F3002F1C1
:1043D00004024FF00005C0F2C28421F08001079171
:1043E00054EA05010E923FF45AAF1F465EE711935F
:1043F000AB46002A40F0BE85079B43F010030793AD
:10440000079A12F020037FF4BDAE079911F0100255
:1044100000F026830E98BBF1000F024604688DF869
:104420006F3002F104024FF00005C0F28C8421F0DD
:104430008001079154EA05010E921F467FF4B8AE41
:10444000BBF1000F00F09080002440AE303406F83D
:10445000414DFFF7F6BA002A40F08885079B9B067E
:1044600040F1CA820E9A134604330E930B9B1168D7
:10447000DD171A462B46C1E90023FFF708BAA3F15E
:10448000300000231C4618F8013B04EB840400EBC9
:104490004404A3F130000928F5D90C94FFF72CBA95
:1044A0001193AB46002A40F05D85079B4C489D0662
:1044B0003FF5A3AE079BDC0640F1B5820E9A0025BE
:1044C0001346043314680E93A0E61193AB46002AFA
:1044D00040F04485079B43F010030793079B980621
:1044E00040F1F1800E9C073424F00704D4E9002346
:1044F00004F108011D4614460E91002A73F10003D1
:10450000C0F2F280BBF1000F9DF86F70C0F20A811B
:10451000079B23F08003079354EA05037FF448AE1A
:104520008EE71193AB46002AD8D08DF86F10D5E7EF
:10453000079B43F04003079398F80030FFF7DAB980
:104540000E9911930A68002301201F468DF86F30E1
:104550009B4613930B1D08908DF898200E930D9099
:1045600026AEFFF77CBA5F464FF0000BCDF834B0B3
:1045700030AEFFF769BA23AA09990A9805F0A4FF9B
:1045800000287FF49BAB259CFFF763BB1193002AA7
:1045900040F0D384119A002A3FF489AB0023012113
:1045A0001F4608918DF898208DF86F309B46139325
:1045B0000D9126AEFFF753BA23AA09990A9805F080
:1045C00083FF00287FF47AAB0DF1C009259CFFF72B
:1045D000A2BB00BFFFFFEF7F6CFC000068FC000087
:1045E00078FC0000249BB849013301340122072BD9
:1045F0002594249389E8060000F3C28209F1080992
:104600002DB9129B1BB9079BDF077FF5E8AA249BF6
:1046100016990133179A0C44072B2594C9F80020EA
:10462000C9F80410249300F3FF8309F108096D42CF
:10463000002D40F3DB82A54A102D0F9240F34B83EF
:1046400022461027DDF828B0099C05E009F1080989
:10465000103D102D40F33E8301331032072B25927D
:104660002493C9F800A0C9F80470EFDD23AA2146FD
:10467000584605F029FF00287FF420AB0DF1C00952
:10468000259A249BE4E792480791119354EA050385
:104690000E924FF000077FF4C5A900240025FFF714
:1046A000C1B9BBF1000F8DF86F70C0F2038222F028
:1046B0008003079354EA05037FF4B4A9BBF1000F0C
:1046C0007FF4E5AA4FE7079BD90640F1BA810E9A1D
:1046D00013461C680433E51722460E932B46002A26
:1046E00073F10003BFF60EAF64424FF02D0765EB88
:1046F0004505BBF1000F8DF86F70FFF659AD079BB4
:1047000023F08003079353E50E9ABBF1000F134685
:1047100014688DF86F7003F104034FF0000580F208
:10472000E2810E9354EA05037FF442AD8DE623AA9D
:1047300009990A9805F0C8FE00287FF4BFAA259CB5
:104740000DF1C009139A1D9B32441746129A9342E9
:1047500049DB079AD50746D412990E44F51BCB1AAC
:104760009D42A8BF1D46002D2E460DDD249A2C44E7
:104770000132072A2594C9F80070C9F80450249220
:1047800000F3D28209F10809002EB4BF1D469D1B1B
:10479000002D7FF724AA4D4A102D249B0F927FF7FE
:1047A000F4AB10260A9FDDF824B005E009F10809F2
:1047B000103D102D7FF7E9AB01331034072B259402
:1047C0002493C9F800A0C9F80460EFDD23AA594674
:1047D000384605F079FE00287FF470AA0DF1C00973
:1047E000259C249BE4E7249A1698013217990444E7
:1047F000072A2594C9F80010C9F80400249200F390
:10480000778209F10809A7E7079BD8073FF514ABA2
:104810000123072D2594C9F800602495C9F80430B8
:104820007FF726AC23AA09990A9805F04DFE0028C7
:104830007FF444AA0DF1C009259C249D1AE423AA03
:1048400009990A9805F040FE00287FF437AA0DF177
:10485000C009259C249DFFF7FBBA23AA09990A9851
:1048600005F032FE00287FF429AA0DF1C009259C2D
:10487000249DFFF7FCBA23AA09990A9805F024FEA3
:1048800000287FF41BAA0DF1C009259CFFF75BB936
:10489000079911F0400700F00F810E98BBF1000F4F
:1048A000034604888DF86F2003F104034FF00005E0
:1048B000C0F2738121F08001079154EA05010E9343
:1048C0003FF4EDAC1746F1E4A8FC0000ACFC00009E
:1048D0008CFC0000149C22462046159C2346214651
:1048E00006F0C6F8002840F0C182119BBBF1FF3FE3
:1048F00023F020030D9300F04982472B00F05081F4
:10490000079B43F480731093159B1F1E149B089301
:10491000B7BF3B46002303F100472D230F93119BA4
:10492000662B00F01F82462B00F00D810D9B21A805
:10493000452B18BF5D461EA908BF0BF10105049069
:1049400003911DA802213B460290089A019500910F
:104950000A9803F00DF8119B0646672B40F034824D
:10496000079BDA0740F16F827419089839460022D4
:10497000002306F04BF8002840F04D81219B9C421B
:1049800006D930215A1C21921970219B9C42F9D8DA
:104990009B1B12930D9B472B00F03681119B652BBF
:1049A00040F32182119B662B1D9B139300F0FE8127
:1049B000139A12998A42C0F2EC81079BD90700F141
:1049C000448222EAE2730D92672211920F9A002A22
:1049D00040F0EF800893109B934607939DF86F700B
:1049E000FFF739B824F0070423681493636815931C
:1049F00004F108030E9392E4079BDF060BD4079B98
:104A00005E0608D50E9A136804320E92BDF82C206B
:104A10001A80FEF73CBF0E9A136804320E920B9A6E
:104A20001A60FEF734BF0E9A079B002513F0400F63
:104A3000134603F104030CBF146814880E93FFF7A8
:104A4000E5BB079B0E9A13F0400F13463FF441AEAF
:104A5000B2F900400433E5170E9322462B464CE58D
:104A6000079911F040073FF44FAE0E98BBF1000FCD
:104A7000034604888DF86F2003F104034FF000050E
:104A8000C0F2948021F08001079154EA05010E9351
:104A900017467FF48DABD3E4144601330F9A2C44B0
:104AA000072B2594249389E824003FF740AE09F1B1
:104AB000080947E60E9AE9E50E9ABBF1000F134686
:104AC00014688DF86F7003F104034FF0000564DB88
:104AD000079A0E9322F08002079254EA05027FF4AF
:104AE000E5ABFFF7DCBB079A0E9322F0800207923A
:104AF00054EA05027FF45CABA2E4079B08F10108CD
:104B000043F02003079398F80030FEF7F3BE23AA82
:104B100009990A9805F0D8FC00287FF4CFA80DF178
:104B2000C009259CFFF70FB940210A9804F05CFBEF
:104B3000099A10601061002800F0F581099A40235D
:104B40005361FEF794BE21A81EA9049003911DA8ED
:104B500003210290089A3B46CDF804B000910A98D0
:104B600002F006FF5D460646119B7419462B7FF442
:104B7000FCAE3378302B00F097811D9D2C44F4E679
:104B800023AA09990A9805F09FFC00287FF496A8AB
:104B90000DF1C0091D9D259C32E50E93FFF785BBE5
:104BA000BBF1000F08BF4FF0010BA9E60E931746AB
:104BB000B8E50893109B2D2707938DF86F704FF081
:104BC000000BFEF749BF3046FEF76CFDAB460346CF
:104BD000FFF7C4BA23AA09990A9805F075FC0028C2
:104BE0007FF46CA8259C249B0DF1C0091299013318
:104BF0000C44072B25942493C9F80060C9F80410CD
:104C00007EF7EBAFFFF7CBB91D9BDD1C12DB9B459D
:104C100010DB1393CCE62346BAE623AA09990A9837
:104C200005F052FC00287FF449A80DF1C009259C2D
:104C3000FFF7E0B9119A023A1192013B9DF8442026
:104C4000002B1D93B8BF5B428DF87C20B4BF2D2292
:104C50002B22092B8DF87D2040F300810DF18B0074
:104C60000446B84A82FB0321DA17C2EBA10101EB2B
:104C70008102A3EB4202303209290B4604F8012DD0
:104C8000EFDC21463033DAB201F8012D884240F2E0
:104C900051810DF17E01234601E013F8012B98426A
:104CA00001F8012BF9D1431C1B1B0DF17E021344AB
:104CB0001FAA9B1A129A1993012A13440D9340F3C9
:104CC00009810D9B169A134400220D93139223EA37
:104CD000E3737BE6144601330F9A2C44072B25948B
:104CE000249389E824003FF775AF09F108097DE7AF
:104CF00023AA09990A9805F0E7FB00287EF4DEAFA5
:104D00000DF1C0091D9B259C26E55B46062B28BF9F
:104D100006230D9323EAE373B346374613960E94A6
:104D20000893894EFEF797BE23AA09990A9805F0C1
:104D3000CBFB00287EF4C2AF1D9B129A259CD31A90
:104D40000DF1C00920E50E921F46EBE42D231F460E
:104D50008DF86F30FFF706BB0793FEF763BE0E9228
:104D6000FFF7A3BA21A81EA9049003911DA803214F
:104D70000290089A3B46CDF804B000910A9802F0E0
:104D8000F7FD5D46064600EB0B04F2E64FF0060B1E
:104D9000B6E5169A129B1344139A0D93002A40F31A
:104DA0009180672223EAE37311920FE6002B40F310
:104DB0009B80BBF1000F6ED1079AD4076BD41A46C3
:104DC00023EAE3730D9201E6119B472B7FF4CCADF0
:104DD000079BDB073FF5C8AE219B9B1B12930D9BE6
:104DE000472B3FF411AF1D9B27E7079B5F46DB076F
:104DF00005D540AE302306F8413DFEF722BECDF882
:104E000034B030AEFEF720BE2BEAEB73CDF834B0F1
:104E1000089383460E9413909DF86F70FEF71BBEA7
:104E2000A0460025FEF768BD23AA09990A9805F057
:104E30004BFB00287EF442AF0DF1C0091D9D259C5F
:104E4000249BFFF7F4BB219BA2E5169A139B134406
:104E500067220D93119223EAE373B7E530333022D2
:104E60008DF87F308DF87E2020AB21E70799374EF3
:104E700021F08001364B0791119903224FF0000B6E
:104E800008924729D8BF1E460D92CDF84CB09DF828
:104E90006F70FEF7E0BD139B169A9D1805EB0B0390
:104EA0000D9323EAE37391E5089839460022002325
:104EB00005F0ACFD00287FF460AEC5F101051D953D
:104EC0002C4452E5139B0D9AC3F101031A44134677
:104ED0000D9266E7079B13F001037FF4F2AE139384
:104EE0000D9B23EAE37371E5BBF1000F02D1079B31
:104EF000D80707D5169B5D1C05EB0B030D9323EA22
:104F0000E37363E501230D9360E50E9898F8013093
:104F100005680430002D0E90A046BEF6EBAC4FF0B5
:104F2000FF35FEF7E7BC0A9A0C2313604FF0FF3001
:104F3000FEF7CDBE0DF17E03BAE68DF86F10FFF7D8
:104F400029BB00BF67666666A0FC000074FC000019
:104F500070FC00008DF86F10FFF70FB98DF86F101F
:104F6000FFF7B8BA8DF86F10FFF79FBA8DF86F1082
:104F7000FFF774BA8DF86F10FFF73EBA8DF86F1017
:104F8000FFF710BA8DF86F10FFF732B98DF86F1078
:104F9000FFF7B5B98DF86F10FFF768B94B6E2DE9C3
:104FA000F0479C0492462CD5936812683BB30F4699
:104FB000804602F1080919E96000B60817D0043DDF
:104FC000002401E0A64210D03A4655F8041F40469E
:104FD00003F094FD431C04F10104F3D10023CAF84B
:104FE0000830CAF80430BDE8F087DAF80830A3EBDF
:104FF0008603CAF8083009F10809002BDBD100202C
:10500000ECE703F0C3FE0023CAF80830CAF8043006
:10501000BDE8F08793680BB1FFF7C0BF10B4184626
:10502000536010BC704700BF2DE9F04FABB01C4679
:10503000009190460493059018B1836B002B00F00B
:10504000DE800098B0F90C108AB2950407D4436E44
:1050500041F4005223F400538281436692B2110757
:1050600040F1B180009B1B69002B00F0AC8002F086
:105070001A020A2A00F0B5800DF1680AD34600230F
:1050800002930F930E93CDF834A098F80030444665
:10509000FBB1252B02D11CE0252B03D014F8013FD6
:1050A000002BF9D1C8EB04059DB10E9B0F9A01337B
:1050B0002A44072BCBF80080CBF804500F920E93B4
:1050C0007BDD002A40F01F85D346029B0E922B44C5
:1050D00002932378002B00F03B844FF00003002163
:1050E0008DF82F3004F10108637808460E460C460F
:1050F0004FF0FF32019208F10108A3F12002582A73
:1051000000F28B83DFE812F03D0389038903450336
:105110008903890389038903890389037E006B025C
:105120008903860070028903CC015D025D025D0285
:105130005D025D025D025D025D025D02890389031D
:1051400089038903890389038903890389038903FF
:10515000D1018903890389038903890389038903A9
:105160008903890389031A0289038903890389034F
:105170008903E502890389030803890389038903F5
:1051800089038903890389038903890389032B031D
:1051900082038903890389035E03820389038903E8
:1051A0006303890370038D028B00E002890393027D
:1051B0008903B202890389034A030BF1080B029B9E
:1051C0002B44029385E70099059802F051FA0028D4
:1051D00040F04585009B9A8902F01A020A2A7FF462
:1051E0004BAF0099B1F90E30002BFFF645AF2346C7
:1051F0004246059800F00CFE2BB0BDE8F08F03F09E
:1052000015FC1EE7049A134614680433002C04931B
:1052100002DA644246F0040698F800306BE74FF07B
:10522000000304988DF82F30034630218DF830109C
:1052300001997822002906948DF83120046803F141
:1052400004034FF0000546F00202C0F20C8526F080
:10525000800654EA050246F00206049340F0B58445
:10526000B348019B002B40F06284994657460023C7
:1052700001930393019B039A9342B8BF13461D46C3
:10528000B9F1000F00D0013516F00203079318BFE3
:10529000023516F08403089340F0E882069B5C1BFD
:1052A000002C40F3E382102C40F33C85DFF884921D
:1052B000DDF838E0DC460F9AC3461023A846704656
:1052C0004D46DDF8149007E000F1020E08460CF19F
:1052D000080C103C102C13DD411C103207290F92D2
:1052E000CCF80050CCF804300E91EDDD002A40F0EF
:1052F000A582103C102C10464FF0010ED446EBDC7A
:10530000A94670464546D846E346224407280F92F0
:10531000CBF80090CBF804400E9000F36D839DF81D
:105320002F300BF1080B00F1010E002B40F0A7828B
:10533000079B002B00F0BA8202320CA90223BEF1B7
:10534000070F0F92CDF838E08BE80A0040F3708326
:10535000002A40F00084089B4FF0010E802B10467D
:10536000D34640F0A782069B5C1B002C40F3A28230
:10537000102C40F3F884DFF8C091DE461023C346BA
:10538000A8464D46DDF8149007E000F1020C0846EF
:105390000EF1080E103C102C13DD411C10320729B1
:1053A0000F92CEF80050CEF804300E91EDDD002AB9
:1053B00040F00C83103C102C4FF0010C1046D646E8
:1053C000EBDCA9464546D846F3462244BCF1070F1C
:1053D0000F92CBF80090CBF80440CDF838C000F322
:1053E000C883019B03990BF1080B5C1A002C0CF18C
:1053F000010E604600F364820399BEF1070F0A4470
:105400000F92CBF80070CBF80410CDF838E040F3E1
:10541000C582002A40F0328370070E9238D5069B71
:105420005C1B002C34DDD346102C40F39684DFF84F
:1054300004910E994F461026DDF8149006E0881C62
:1054400019460BF1080B103C102C13DD4B1C1032CD
:10545000072B0F92CBF80070CBF804600E93EEDDB3
:10546000002A40F08582103C102C4FF001001146BC
:10547000D346EBDCB946224407280F92CBF80090C4
:10548000CBF804400E9040F39282002A40F00C8446
:10549000029B069AAA42ACBF9B185B19029390E24A
:1054A00046F0800698F8003025E60694002940F082
:1054B000858446F01006B30640F104830499073151
:1054C00021F00701D1E9002314461D46083104915B
:1054D000002A73F10003C0F27C83019B9DF82F909A
:1054E000002BC0F20B8354EA050326F0800600F07F
:1054F000DE80002D08BF0A2CC0F0DE805746204613
:1055000029460A22002305F0F1FA303207F8012D6E
:105510002046294600230A2205F0E8FA04460D46F3
:1055200054EA0503EBD1C7EB0A030393A2E600BFDD
:105530008CFC0000BCFC0000CCFC000006940029A0
:1055400040F0388446F0100616F0200300F0A182E7
:105550004FF00002049B8DF82F20073323F0070340
:1055600003F10802D3E90045019B0492002B0ADBFA
:1055700054EA050326F0800605D1019B002B00F0BC
:105580002784002400254FF000095746E20842EA2C
:105590004572E90804F007030D461446303354EA17
:1055A000050207F8013DF1D1F407BCD5302BBAD084
:1055B00030227B1E07F8012CC3EB0A0203921F4620
:1055C00058E6A3F13002002418F8013B04EB8404F0
:1055D00002EB4404A3F13002092AF5D98DE598F8CD
:1055E000003001212B2086E598F8003008F10105F4
:1055F0002A2B00F0CC83A3F13002092AA84698BFD9
:10560000002500F2B58318F8013B05EB850502EB98
:105610004505A3F13002092AF5D945EAE572019260
:105620006BE5069400298FD08DF82F008CE74FF0A2
:105630000003049A069417688DF82F30141D019BFF
:10564000002F00F07F83002BC0F253831A46002105
:10565000384604F075F8002800F08E83C31B0393CE
:10566000002304949DF82F90019303E606940029EB
:1056700040F09D8316F0200934D116F0100303D1B9
:1056800016F0400940F01F83049A00251346146861
:10569000019A8DF82F90002A03F10403C0F22783AA
:1056A00054EA050226F0800604937FF422AF019BA2
:1056B000002B3FF4DBAD00242AAF303407F8414D16
:1056C000C7EB0A030393D5E546F0200698F80030AF
:1056D00011E50694002940F0758346F0100616F097
:1056E0002009CAD04FF00002049B8DF82F20073309
:1056F00023F0070303F10802D3E90045019B04925C
:10570000002BC0F2F98154EA050326F080064FF021
:1057100000097FF4EEAECAE70694002940F05583F5
:10572000B206B24841D5049A073222F0070202F1CC
:1057300008010491D2E9004516F0010900F07E81CC
:1057400054EA050240F02B824FF000038DF82F3011
:10575000019B002BC0F2F38226F0800681E5049ABB
:105760004FF00001136801258DF8403013460433D3
:1057700006948DF82F100493039510AF0023019326
:1057800082E598F8003000287FF4B5AC0121202094
:10579000B1E446F0010698F80030ACE40694002924
:1057A00040F02A83B2069248BDD40499F7060A460F
:1057B00000F19D81750640F19A8104320C880492B3
:1057C0000025B9E746F0400698F8003093E498F8D1
:1057D00000306C2B03BF98F8013046F0200608F12A
:1057E000010846F0100686E4002940F00283B40662
:1057F00040F12082049A134604330493029B1168FB
:10580000DD171A462B46C1E900233EE40694002921
:105810003FF451AE8DF82F004DE60694002940F07C
:10582000E582002B00F094808DF840304FF00003AB
:1058300001258DF82F30039510AF9FE70DAA009931
:1058400048460993FFF7AAFB002840F088800E988D
:10585000D4460F9A00F1010E099B3AE50DAA009972
:105860000598FFF79BFB002879D1D3460E989DF849
:105870002F300F9A00F1010E002B3FF459AD013289
:105880000DF12F010123BEF1070F0F92CDF838E083
:105890008BE80A0040F3C080002A40F04D81079950
:1058A000002940F0BF809E461046D346089B802BBF
:1058B0003FF459AD019B03995C1A002C7FF79CAD16
:1058C000102CDFF8309125DDDC461023C346A846B6
:1058D0004D46DDF8149007E000F1020E08460CF189
:1058E000080C103C102C11DD411C103207290F92BE
:1058F000CCF80050CCF804300E91EDDDD2B9103C5C
:10590000102C4FF0010E1046D446EDDCA94645465A
:10591000D846E3462244BEF1070F0F92CBF8009021
:10592000CBF80440CDF838E02EDC0BF1080B0EF17B
:10593000010E61E50DAA009948460193FFF72EFB81
:1059400068B90E98D4460F9A00F1010E019BC8E782
:105950000F9B23B105980DAA0099FFF71FFB009B31
:105960009B895A0600F17B8102982BB0BDE8F08F2D
:105970000DAA00994846FFF711FB0028EFD10E99B8
:10598000D3460F9A481C5EE5002A40F0FA80D346C1
:10599000039A01231B920F921A970E930BF1080B97
:1059A000710704D5069B5C1B002C3FF73DAD029BA5
:1059B0000699A942ACBF5B185B190293002A40F01C
:1059C000AD8000230E93D346FFF75FBB0DAA00996D
:1059D00048460793FFF7E2FA0028C0D10E98D64652
:1059E0000F9A00F1010C079BD4E400BF78FC000083
:1059F0008CFC0000CCFC0000002A7FF42FAF9DF847
:105A00002F30002B00F0F38001231A469E46D34628
:105A10000DF12F011B931A9170460BF1080B0EF13B
:105A2000010E85E49E46D3460CA902221A911B92D0
:105A300070460BF1080B0EF1010E37E7019B8DF854
:105A40002F90002BC0F21B8154EA050326F080063C
:105A50003FF407AC5746230943EA0573290904F0CC
:105A60000F020D461C46835C07F8013D54EA05030E
:105A7000F1D1C7EB0A030393FFF7FCBB0DAA009912
:105A80000598FFF78BFA00287FF469AFD3460F9A89
:105A900086E716F0100200F0B58004998DF82F30DB
:105AA0000A460C680199043200294FF00005C0F243
:105AB000528154EA050126F0800604923FF45DAD60
:105AC000994662E5049AF706134609D4750607D588
:105AD000B2F900400433E517049322462B46F7E45D
:105AE0001C680433E517049322462B46F0E414683F
:105AF0000432049200251FE64FF0000954EA050322
:105B00007FF4F7ACD8E50DAA00990598FFF746FA9F
:105B100000287FF424AFD346FFF751BB0DAA0099AC
